{
  "contractName": "EnvoyStakingV2",
  "abi": [
    {
      "inputs": [
        {
          "internalType": "address",
          "name": "signatureAddress_",
          "type": "address"
        },
        {
          "internalType": "address",
          "name": "stakingTokenAddress",
          "type": "address"
        }
      ],
      "stateMutability": "nonpayable",
      "type": "constructor"
    },
    {
      "anonymous": false,
      "inputs": [
        {
          "indexed": false,
          "internalType": "string",
          "name": "field",
          "type": "string"
        },
        {
          "indexed": false,
          "internalType": "uint256",
          "name": "value",
          "type": "uint256"
        }
      ],
      "name": "ConfigUpdate",
      "type": "event"
    },
    {
      "anonymous": false,
      "inputs": [
        {
          "indexed": true,
          "internalType": "address",
          "name": "previousOwner",
          "type": "address"
        },
        {
          "indexed": true,
          "internalType": "address",
          "name": "newOwner",
          "type": "address"
        }
      ],
      "name": "OwnershipTransferred",
      "type": "event"
    },
    {
      "anonymous": false,
      "inputs": [
        {
          "indexed": true,
          "internalType": "address",
          "name": "stakeholder_",
          "type": "address"
        },
        {
          "indexed": false,
          "internalType": "uint256",
          "name": "reward_",
          "type": "uint256"
        },
        {
          "indexed": false,
          "internalType": "uint256",
          "name": "numberOfPeriods",
          "type": "uint256"
        }
      ],
      "name": "Rewarding",
      "type": "event"
    },
    {
      "anonymous": false,
      "inputs": [
        {
          "indexed": true,
          "internalType": "address",
          "name": "stakeholder_",
          "type": "address"
        },
        {
          "indexed": false,
          "internalType": "uint256",
          "name": "stake_",
          "type": "uint256"
        }
      ],
      "name": "Staking",
      "type": "event"
    },
    {
      "inputs": [],
      "name": "cooldown",
      "outputs": [
        {
          "internalType": "uint256",
          "name": "",
          "type": "uint256"
        }
      ],
      "stateMutability": "view",
      "type": "function"
    },
    {
      "inputs": [],
      "name": "endDate",
      "outputs": [
        {
          "internalType": "uint256",
          "name": "",
          "type": "uint256"
        }
      ],
      "stateMutability": "view",
      "type": "function"
    },
    {
      "inputs": [],
      "name": "maxWeight",
      "outputs": [
        {
          "internalType": "uint256",
          "name": "",
          "type": "uint256"
        }
      ],
      "stateMutability": "view",
      "type": "function"
    },
    {
      "inputs": [],
      "name": "owner",
      "outputs": [
        {
          "internalType": "address",
          "name": "",
          "type": "address"
        }
      ],
      "stateMutability": "view",
      "type": "function"
    },
    {
      "inputs": [],
      "name": "renounceOwnership",
      "outputs": [],
      "stateMutability": "nonpayable",
      "type": "function"
    },
    {
      "inputs": [],
      "name": "rewardPeriodLength",
      "outputs": [
        {
          "internalType": "uint256",
          "name": "",
          "type": "uint256"
        }
      ],
      "stateMutability": "view",
      "type": "function"
    },
    {
      "inputs": [
        {
          "internalType": "uint256",
          "name": "",
          "type": "uint256"
        }
      ],
      "name": "rewardPeriods",
      "outputs": [
        {
          "internalType": "uint256",
          "name": "startDate",
          "type": "uint256"
        },
        {
          "internalType": "uint256",
          "name": "endDate",
          "type": "uint256"
        },
        {
          "internalType": "uint256",
          "name": "rewardPerPeriod",
          "type": "uint256"
        },
        {
          "internalType": "uint256",
          "name": "totalWeightedStakingBalance",
          "type": "uint256"
        },
        {
          "internalType": "uint256",
          "name": "totalRewardsClaimed",
          "type": "uint256"
        }
      ],
      "stateMutability": "view",
      "type": "function"
    },
    {
      "inputs": [],
      "name": "signatureAddress",
      "outputs": [
        {
          "internalType": "address",
          "name": "",
          "type": "address"
        }
      ],
      "stateMutability": "view",
      "type": "function"
    },
    {
      "inputs": [
        {
          "internalType": "address",
          "name": "",
          "type": "address"
        }
      ],
      "name": "stakeholders",
      "outputs": [
        {
          "internalType": "uint256",
          "name": "stakingBalance",
          "type": "uint256"
        },
        {
          "internalType": "uint256",
          "name": "weight",
          "type": "uint256"
        },
        {
          "internalType": "uint256",
          "name": "startDate",
          "type": "uint256"
        },
        {
          "internalType": "uint256",
          "name": "lastClaimed",
          "type": "uint256"
        },
        {
          "internalType": "uint256",
          "name": "rewardPeriod",
          "type": "uint256"
        },
        {
          "internalType": "uint256",
          "name": "releaseDate",
          "type": "uint256"
        },
        {
          "internalType": "uint256",
          "name": "releaseAmount",
          "type": "uint256"
        },
        {
          "internalType": "uint256",
          "name": "newStake",
          "type": "uint256"
        }
      ],
      "stateMutability": "view",
      "type": "function"
    },
    {
      "inputs": [],
      "name": "stakingToken",
      "outputs": [
        {
          "internalType": "contract IERC20",
          "name": "",
          "type": "address"
        }
      ],
      "stateMutability": "view",
      "type": "function"
    },
    {
      "inputs": [],
      "name": "startDate",
      "outputs": [
        {
          "internalType": "uint256",
          "name": "",
          "type": "uint256"
        }
      ],
      "stateMutability": "view",
      "type": "function"
    },
    {
      "inputs": [
        {
          "internalType": "uint256",
          "name": "",
          "type": "uint256"
        }
      ],
      "name": "totalWeightedStake",
      "outputs": [
        {
          "internalType": "uint256",
          "name": "",
          "type": "uint256"
        }
      ],
      "stateMutability": "view",
      "type": "function"
    },
    {
      "inputs": [
        {
          "internalType": "address",
          "name": "newOwner",
          "type": "address"
        }
      ],
      "name": "transferOwnership",
      "outputs": [],
      "stateMutability": "nonpayable",
      "type": "function"
    },
    {
      "inputs": [
        {
          "internalType": "uint256",
          "name": "weight_",
          "type": "uint256"
        },
        {
          "internalType": "bytes",
          "name": "signature",
          "type": "bytes"
        }
      ],
      "name": "updateWeight",
      "outputs": [],
      "stateMutability": "nonpayable",
      "type": "function"
    },
    {
      "inputs": [
        {
          "internalType": "uint256",
          "name": "amount",
          "type": "uint256"
        }
      ],
      "name": "stake",
      "outputs": [],
      "stateMutability": "nonpayable",
      "type": "function"
    },
    {
      "inputs": [
        {
          "internalType": "uint256",
          "name": "amount",
          "type": "uint256"
        },
        {
          "internalType": "bool",
          "name": "claimRewardsFirst",
          "type": "bool"
        }
      ],
      "name": "requestWithdrawal",
      "outputs": [],
      "stateMutability": "nonpayable",
      "type": "function"
    },
    {
      "inputs": [],
      "name": "withdrawFunds",
      "outputs": [],
      "stateMutability": "nonpayable",
      "type": "function"
    },
    {
      "inputs": [
        {
          "internalType": "bool",
          "name": "withdrawl",
          "type": "bool"
        }
      ],
      "name": "claimRewards",
      "outputs": [],
      "stateMutability": "nonpayable",
      "type": "function"
    },
    {
      "inputs": [
        {
          "internalType": "address",
          "name": "stakeholderAddress",
          "type": "address"
        }
      ],
      "name": "calculateRewards",
      "outputs": [
        {
          "internalType": "uint256",
          "name": "reward",
          "type": "uint256"
        },
        {
          "components": [
            {
              "internalType": "uint256",
              "name": "stakingBalance",
              "type": "uint256"
            },
            {
              "internalType": "uint256",
              "name": "weight",
              "type": "uint256"
            },
            {
              "internalType": "uint256",
              "name": "startDate",
              "type": "uint256"
            },
            {
              "internalType": "uint256",
              "name": "lastClaimed",
              "type": "uint256"
            },
            {
              "internalType": "uint256",
              "name": "rewardPeriod",
              "type": "uint256"
            },
            {
              "internalType": "uint256",
              "name": "releaseDate",
              "type": "uint256"
            },
            {
              "internalType": "uint256",
              "name": "releaseAmount",
              "type": "uint256"
            },
            {
              "internalType": "uint256",
              "name": "newStake",
              "type": "uint256"
            }
          ],
          "internalType": "struct EnvoyStakingV2.StakeHolder",
          "name": "stakeholder",
          "type": "tuple"
        }
      ],
      "stateMutability": "view",
      "type": "function"
    },
    {
      "inputs": [
        {
          "internalType": "address",
          "name": "sender",
          "type": "address"
        },
        {
          "internalType": "uint256",
          "name": "weight",
          "type": "uint256"
        },
        {
          "internalType": "bytes",
          "name": "signature",
          "type": "bytes"
        }
      ],
      "name": "_recoverSigner",
      "outputs": [
        {
          "internalType": "address",
          "name": "",
          "type": "address"
        }
      ],
      "stateMutability": "view",
      "type": "function"
    },
    {
      "inputs": [
        {
          "internalType": "uint256",
          "name": "amount",
          "type": "uint256"
        }
      ],
      "name": "withdrawRemainingFunds",
      "outputs": [],
      "stateMutability": "nonpayable",
      "type": "function"
    },
    {
      "inputs": [
        {
          "internalType": "address",
          "name": "value",
          "type": "address"
        }
      ],
      "name": "updateSignatureAddress",
      "outputs": [],
      "stateMutability": "nonpayable",
      "type": "function"
    },
    {
      "inputs": [
        {
          "internalType": "uint256",
          "name": "value",
          "type": "uint256"
        }
      ],
      "name": "updateCoolDownPeriod",
      "outputs": [],
      "stateMutability": "nonpayable",
      "type": "function"
    },
    {
      "inputs": [
        {
          "internalType": "uint256",
          "name": "value",
          "type": "uint256"
        }
      ],
      "name": "updateRewardsPerPeriod",
      "outputs": [],
      "stateMutability": "nonpayable",
      "type": "function"
    },
    {
      "inputs": [],
      "name": "currentPeriod",
      "outputs": [
        {
          "internalType": "uint256",
          "name": "period",
          "type": "uint256"
        }
      ],
      "stateMutability": "view",
      "type": "function"
    },
    {
      "inputs": [
        {
          "internalType": "uint256",
          "name": "period",
          "type": "uint256"
        }
      ],
      "name": "totalUnclaimedRewards",
      "outputs": [
        {
          "internalType": "uint256",
          "name": "rewards",
          "type": "uint256"
        }
      ],
      "stateMutability": "view",
      "type": "function"
    }
  ],
  "bytecode": "0x608060405262093a8060085562093a806009556040518060400160405280600f81526020017f454e564f59202d205354414b494e470000000000000000000000000000000000815250600b90805190602001906200005f929190620002f8565b506040518060400160405280600581526020017f454e562d53000000000000000000000000000000000000000000000000000000815250600c9080519060200190620000ad929190620002f8565b50348015620000bb57600080fd5b506040516200423f3803806200423f8339818101604052810190620000e19190620003bf565b62000101620000f56200022c60201b60201c565b6200023460201b60201c565b81600460006101000a81548173ffffffffffffffffffffffffffffffffffffffff021916908373ffffffffffffffffffffffffffffffffffffffff16021790555080600560006101000a81548173ffffffffffffffffffffffffffffffffffffffff021916908373ffffffffffffffffffffffffffffffffffffffff1602179055504260068190555060006040518060a00160405280600081526020016000815260200169cadd48b84a771ac0000081526020016000815260200160008152509050600281908060018154018082558091505060019003906000526020600020906005020160009091909190915060008201518160000155602082015181600101556040820151816002015560608201518160030155608082015181600401555050505050620004b3565b600033905090565b60008060009054906101000a900473ffffffffffffffffffffffffffffffffffffffff169050816000806101000a81548173ffffffffffffffffffffffffffffffffffffffff021916908373ffffffffffffffffffffffffffffffffffffffff1602179055508173ffffffffffffffffffffffffffffffffffffffff168173ffffffffffffffffffffffffffffffffffffffff167f8be0079c531659141344cd1fd0a4f28419497f9722a3daafe3b4186f6b6457e060405160405180910390a35050565b828054620003069062000434565b90600052602060002090601f0160209004810192826200032a576000855562000376565b82601f106200034557805160ff191683800117855562000376565b8280016001018555821562000376579182015b828111156200037557825182559160200191906001019062000358565b5b50905062000385919062000389565b5090565b5b80821115620003a45760008160009055506001016200038a565b5090565b600081519050620003b98162000499565b92915050565b60008060408385031215620003d357600080fd5b6000620003e385828601620003a8565b9250506020620003f685828601620003a8565b9150509250929050565b60006200040d8262000414565b9050919050565b600073ffffffffffffffffffffffffffffffffffffffff82169050919050565b600060028204905060018216806200044d57607f821691505b602082108114156200046457620004636200046a565b5b50919050565b7f4e487b7100000000000000000000000000000000000000000000000000000000600052602260045260246000fd5b620004a48162000400565b8114620004b057600080fd5b50565b613d7c80620004c36000396000f3fe608060405234801561001057600080fd5b506004361061018e5760003560e01c80638252097d116100de578063bd798a3f11610097578063c3d1aeea11610071578063c3d1aeea14610457578063d9f003ae14610475578063e5cd7e10146104a5578063f2fde38b146104c15761018e565b8063bd798a3f146103e6578063c07cfca914610402578063c24a0f8b146104395761018e565b80638252097d146103225780638da5cb5b146103565780638fc0f3fb14610374578063935ece3114610390578063a694fc3a146103ac578063a8b0bb83146103c85761018e565b80633b26a1b81161014b57806364ab86751161012557806364ab8675146102ab578063715018a6146102dc57806372f702f3146102e6578063787a08a6146103045761018e565b80633b26a1b8146102555780633b6dc6b41461027157806342f650d11461028f5761018e565b806306040618146101935780630b97bc86146101b15780630e6878a3146101cf57806324600fc3146101eb57806330f92d6b146101f55780633b1309b614610225575b600080fd5b61019b6104dd565b6040516101a891906138be565b60405180910390f35b6101b96104ff565b6040516101c691906138be565b60405180910390f35b6101e960048036038101906101e49190612ecd565b610505565b005b6101f36109f4565b005b61020f600480360381019061020a9190612f1f565b610ba4565b60405161021c91906138be565b60405180910390f35b61023f600480360381019061023a9190612f1f565b610bbc565b60405161024c91906138be565b60405180910390f35b61026f600480360381019061026a9190612f71565b610ef1565b005b610279611041565b60405161028691906135de565b60405180910390f35b6102a960048036038101906102a49190612fad565b611067565b005b6102c560048036038101906102c09190612e3d565b6111a4565b6040516102d39291906138d9565b60405180910390f35b6102e4611653565b005b6102ee6116db565b6040516102fb91906136c7565b60405180910390f35b61030c611701565b60405161031991906138be565b60405180910390f35b61033c60048036038101906103379190612f1f565b611707565b60405161034d95949392919061392c565b60405180910390f35b61035e61174d565b60405161036b91906135de565b60405180910390f35b61038e60048036038101906103899190612f1f565b611776565b005b6103aa60048036038101906103a59190612e3d565b611a63565b005b6103c660048036038101906103c19190612f1f565b611b23565b005b6103d0611e1c565b6040516103dd91906138be565b60405180910390f35b61040060048036038101906103fb9190612f1f565b611e22565b005b61041c60048036038101906104179190612e3d565b6121c0565b60405161043098979695949392919061397f565b60405180910390f35b610441612208565b60405161044e91906138be565b60405180910390f35b61045f61220e565b60405161046c91906138be565b60405180910390f35b61048f600480360381019061048a9190612e66565b612214565b60405161049c91906135de565b60405180910390f35b6104bf60048036038101906104ba9190612f1f565b61225b565b005b6104db60048036038101906104d69190612e3d565b612318565b005b6000600854426006546104f09190613b5b565b6104fa9190613ad0565b905090565b60065481565b600061050f612410565b90506000600160008373ffffffffffffffffffffffffffffffffffffffff1673ffffffffffffffffffffffffffffffffffffffff1681526020019081526020016000209050600081600301546105636104dd565b61056d9190613b5b565b905060008260000154148015610587575060008260070154145b806105925750600081145b5060008061059f856111a4565b9150915080600001518460000181905550806020015184600101819055508060e0015184600701819055506105d26104dd565b846003018190555060016002805490506105ec9190613b5b565b846004018190555085156106b657600560009054906101000a900473ffffffffffffffffffffffffffffffffffffffff1673ffffffffffffffffffffffffffffffffffffffff1663a9059cbb610640612410565b846040518363ffffffff1660e01b815260040161065e929190613659565b602060405180830381600087803b15801561067857600080fd5b505af115801561068c573d6000803e3d6000fd5b505050506040513d601f19601f820116820180604052508101906106b09190612ef6565b506106f8565b818460000160008282546106ca9190613a7a565b925050819055506106f7600185600101546106e59190613a7a565b836106f09190613b01565b6001612418565b5b6107006104dd565b600260016002805490506107149190613b5b565b8154811061074b577f4e487b7100000000000000000000000000000000000000000000000000000000600052603260045260246000fd5b906000526020600020906005020160000154101561092857600161076d6104dd565b6107779190613b5b565b6002600160028054905061078b9190613b5b565b815481106107c2577f4e487b7100000000000000000000000000000000000000000000000000000000600052603260045260246000fd5b90600052602060002090600502016001018190555060006040518060a001604052806107ec6104dd565b8152602001600081526020016002600160028054905061080c9190613b5b565b81548110610843577f4e487b7100000000000000000000000000000000000000000000000000000000600052603260045260246000fd5b90600052602060002090600502016002015481526020016002600160028054905061086e9190613b5b565b815481106108a5577f4e487b7100000000000000000000000000000000000000000000000000000000600052603260045260246000fd5b90600052602060002090600502016003015481526020018481525090506002819080600181540180825580915050600190039060005260206000209060050201600090919091909150600082015181600001556020820151816001015560408201518160020155606082015181600301556080820151816004015550505061099c565b816002600160028054905061093d9190613b5b565b81548110610974577f4e487b7100000000000000000000000000000000000000000000000000000000600052603260045260246000fd5b906000526020600020906005020160040160008282546109949190613a7a565b925050819055505b8473ffffffffffffffffffffffffffffffffffffffff167ff8e2a26261c4c2473cb153385439b56b471da46d1d12ee8f2652ec039710b7f683856040516109e4929190613903565b60405180910390a2505050505050565b60006109fe612410565b90506000600160008373ffffffffffffffffffffffffffffffffffffffff1673ffffffffffffffffffffffffffffffffffffffff16815260200190815260200160002090506000816005015414158015610a5b5750428160050154105b610a9a576040517f08c379a0000000000000000000000000000000000000000000000000000000008152600401610a91906137a2565b60405180910390fd5b600081600601541015610ae2576040517f08c379a0000000000000000000000000000000000000000000000000000000008152600401610ad99061389e565b60405180910390fd5b600560009054906101000a900473ffffffffffffffffffffffffffffffffffffffff1673ffffffffffffffffffffffffffffffffffffffff1663a9059cbb8383600601546040518363ffffffff1660e01b8152600401610b43929190613659565b602060405180830381600087803b158015610b5d57600080fd5b505af1158015610b71573d6000803e3d6000fd5b505050506040513d601f19601f82011682018060405250810190610b959190612ef6565b50600081600601819055505050565b60036020528060005260406000206000915090505481565b600080600090505b600060028281548110610c00577f4e487b7100000000000000000000000000000000000000000000000000000000600052603260045260246000fd5b9060005260206000209060050201600101541180610c6857508260028281548110610c54577f4e487b7100000000000000000000000000000000000000000000000000000000600052603260045260246000fd5b906000526020600020906005020160010154105b15610ddb5760028181548110610ca7577f4e487b7100000000000000000000000000000000000000000000000000000000600052603260045260246000fd5b90600052602060002090600502016004015460028281548110610cf3577f4e487b7100000000000000000000000000000000000000000000000000000000600052603260045260246000fd5b90600052602060002090600502016002015460028381548110610d3f577f4e487b7100000000000000000000000000000000000000000000000000000000600052603260045260246000fd5b90600052602060002090600502016000015460028481548110610d8b577f4e487b7100000000000000000000000000000000000000000000000000000000600052603260045260246000fd5b906000526020600020906005020160010154610da79190613b5b565b610db19190613b01565b610dbb9190613b5b565b82610dc69190613a7a565b91508080610dd390613c21565b915050610bc4565b60028181548110610e15577f4e487b7100000000000000000000000000000000000000000000000000000000600052603260045260246000fd5b90600052602060002090600502016004015460028281548110610e61577f4e487b7100000000000000000000000000000000000000000000000000000000600052603260045260246000fd5b90600052602060002090600502016002015460028381548110610ead577f4e487b7100000000000000000000000000000000000000000000000000000000600052603260045260246000fd5b90600052602060002090600502016000015485610eca9190613b5b565b610ed49190613b01565b610ede9190613b5b565b82610ee99190613a7a565b915050919050565b6000610efb612410565b90506000600160008373ffffffffffffffffffffffffffffffffffffffff1673ffffffffffffffffffffffffffffffffffffffff1681526020019081526020016000209050600081600001541015610f88576040517f08c379a0000000000000000000000000000000000000000000000000000000008152600401610f7f90613782565b60405180910390fd5b60095442610f969190613a7a565b81600501819055508215610faf57610fae6000610505565b5b80600001548410610fcc5780600001549350600081600201819055505b60095442610fda9190613a7a565b816005018190555083816006018190555061102060018260010154610fff9190613a7a565b85836000015461100f9190613b5b565b6110199190613b01565b6000612418565b838160000160008282546110349190613b5b565b9250508190555050505050565b600460009054906101000a900473ffffffffffffffffffffffffffffffffffffffff1681565b6000611071612410565b905061107e818484612214565b73ffffffffffffffffffffffffffffffffffffffff16600460009054906101000a900473ffffffffffffffffffffffffffffffffffffffff1673ffffffffffffffffffffffffffffffffffffffff161461110d576040517f08c379a000000000000000000000000000000000000000000000000000000000815260040161110490613830565b60405180910390fd5b6000600160008373ffffffffffffffffffffffffffffffffffffffff1673ffffffffffffffffffffffffffffffffffffffff168152602001908152602001600020905061115a6000610505565b61118381600001548260010154866111729190613b5b565b61117c9190613b01565b6001612418565b838160010181905550600a5484111561119e5783600a819055505b50505050565b60006111ae612d27565b600160008473ffffffffffffffffffffffffffffffffffffffff1673ffffffffffffffffffffffffffffffffffffffff168152602001908152602001600020604051806101000160405290816000820154815260200160018201548152602001600282015481526020016003820154815260200160048201548152602001600582015481526020016006820154815260200160078201548152505090506000816060015161125a6104dd565b6112649190613b5b565b90506000826000015114801561127e575060008260e00151145b806112895750600081145b1561129857600092505061164e565b60008383600001516112aa9190613a7a565b905060006112bb8460600151610bbc565b90506000846080015190505b600280549050811015611637576000856060015160028381548110611315577f4e487b7100000000000000000000000000000000000000000000000000000000600052603260045260246000fd5b9060005260206000209060050201600001541061137d5760028281548110611366577f4e487b7100000000000000000000000000000000000000000000000000000000600052603260045260246000fd5b906000526020600020906005020160000154611383565b85606001515b9050600080600284815481106113c2577f4e487b7100000000000000000000000000000000000000000000000000000000600052603260045260246000fd5b9060005260206000209060050201600101541461142a5760028381548110611413577f4e487b7100000000000000000000000000000000000000000000000000000000600052603260045260246000fd5b906000526020600020906005020160010154611433565b6114326104dd565b5b90506002838154811061146f577f4e487b7100000000000000000000000000000000000000000000000000000000600052603260045260246000fd5b906000526020600020906005020160040154600284815481106114bb577f4e487b7100000000000000000000000000000000000000000000000000000000600052603260045260246000fd5b9060005260206000209060050201600201546114d79190613b5b565b846114e29190613a7a565b935060008460028581548110611521577f4e487b7100000000000000000000000000000000000000000000000000000000600052603260045260246000fd5b90600052602060002090600502016003015461153d9190613a7a565b60028581548110611577577f4e487b7100000000000000000000000000000000000000000000000000000000600052603260045260246000fd5b9060005260206000209060050201600201546115939190613ad0565b905060008390505b82811015611620578160018a602001516115b59190613a7a565b886115c09190613b01565b6115ca9190613b01565b876115d59190613a7a565b965060008960e00151111561160d578860e00151896000018181516115fa9190613a7a565b9150818152505060008960e00181815250505b808061161890613c21565b91505061159b565b50505050808061162f90613c21565b9150506112c7565b508360000151826116489190613b5b565b94505050505b915091565b61165b612410565b73ffffffffffffffffffffffffffffffffffffffff1661167961174d565b73ffffffffffffffffffffffffffffffffffffffff16146116cf576040517f08c379a00000000000000000000000000000000000000000000000000000000081526004016116c690613810565b60405180910390fd5b6116d960006126dd565b565b600560009054906101000a900473ffffffffffffffffffffffffffffffffffffffff1681565b60095481565b6002818154811061171757600080fd5b90600052602060002090600502016000915090508060000154908060010154908060020154908060030154908060040154905085565b60008060009054906101000a900473ffffffffffffffffffffffffffffffffffffffff16905090565b61177e612410565b73ffffffffffffffffffffffffffffffffffffffff1661179c61174d565b73ffffffffffffffffffffffffffffffffffffffff16146117f2576040517f08c379a00000000000000000000000000000000000000000000000000000000081526004016117e990613810565b60405180910390fd5b6117fa6104dd565b6002600160028054905061180e9190613b5b565b81548110611845577f4e487b7100000000000000000000000000000000000000000000000000000000600052603260045260246000fd5b90600052602060002090600502016000015410156119c75760016118676104dd565b6118719190613b5b565b600260016002805490506118859190613b5b565b815481106118bc577f4e487b7100000000000000000000000000000000000000000000000000000000600052603260045260246000fd5b90600052602060002090600502016001018190555060006040518060a001604052806118e66104dd565b8152602001600081526020018381526020016002600160028054905061190c9190613b5b565b81548110611943577f4e487b7100000000000000000000000000000000000000000000000000000000600052603260045260246000fd5b90600052602060002090600502016003015481526020016000815250905060028190806001815401808255809150506001900390600052602060002090600502016000909190919091506000820151816000015560208201518160010155604082015181600201556060820151816003015560808201518160040155505050611a29565b80600260016002805490506119dc9190613b5b565b81548110611a13577f4e487b7100000000000000000000000000000000000000000000000000000000600052603260045260246000fd5b9060005260206000209060050201600201819055505b7fad219fed7e76fbd06f005484092a7e2a85d653e9e6be64f32f01c2bb5b21d0e081604051611a589190613850565b60405180910390a150565b611a6b612410565b73ffffffffffffffffffffffffffffffffffffffff16611a8961174d565b73ffffffffffffffffffffffffffffffffffffffff1614611adf576040517f08c379a0000000000000000000000000000000000000000000000000000000008152600401611ad690613810565b60405180910390fd5b80600460006101000a81548173ffffffffffffffffffffffffffffffffffffffff021916908373ffffffffffffffffffffffffffffffffffffffff16021790555050565b6000611b2d612410565b905060008211611b72576040517f08c379a0000000000000000000000000000000000000000000000000000000008152600401611b6990613722565b60405180910390fd5b81600560009054906101000a900473ffffffffffffffffffffffffffffffffffffffff1673ffffffffffffffffffffffffffffffffffffffff1663dd62ed3e83306040518363ffffffff1660e01b8152600401611bd09291906135f9565b60206040518083038186803b158015611be857600080fd5b505afa158015611bfc573d6000803e3d6000fd5b505050506040513d601f19601f82011682018060405250810190611c209190612f48565b1015611c61576040517f08c379a0000000000000000000000000000000000000000000000000000000008152600401611c589061387e565b60405180910390fd5b600560009054906101000a900473ffffffffffffffffffffffffffffffffffffffff1673ffffffffffffffffffffffffffffffffffffffff166323b872dd8230856040518463ffffffff1660e01b8152600401611cc093929190613622565b602060405180830381600087803b158015611cda57600080fd5b505af1158015611cee573d6000803e3d6000fd5b505050506040513d601f19601f82011682018060405250810190611d129190612ef6565b506000600160008373ffffffffffffffffffffffffffffffffffffffff1673ffffffffffffffffffffffffffffffffffffffff1681526020019081526020016000209050600081600201541415611d90574281600201819055504281600301819055506001600280549050611d879190613b5b565b81600401819055505b611d9a6000610505565b828160070181905550611dc960018260010154611db79190613a7a565b84611dc29190613b01565b6001612418565b8173ffffffffffffffffffffffffffffffffffffffff167fb831f69f1cebc12b23cd864ce5bfea2669d01956050a0147d71d418074559c2184604051611e0f91906138be565b60405180910390a2505050565b600a5481565b611e2a612410565b73ffffffffffffffffffffffffffffffffffffffff16611e4861174d565b73ffffffffffffffffffffffffffffffffffffffff1614611e9e576040517f08c379a0000000000000000000000000000000000000000000000000000000008152600401611e9590613810565b60405180910390fd5b6000611ea8612410565b9050611eba611eb56104dd565b610bbc565b60026001600280549050611ece9190613b5b565b81548110611f05577f4e487b7100000000000000000000000000000000000000000000000000000000600052603260045260246000fd5b906000526020600020906005020160030154611f219190613a7a565b600560009054906101000a900473ffffffffffffffffffffffffffffffffffffffff1673ffffffffffffffffffffffffffffffffffffffff166370a08231306040518263ffffffff1660e01b8152600401611f7c91906135de565b60206040518083038186803b158015611f9457600080fd5b505afa158015611fa8573d6000803e3d6000fd5b505050506040513d601f19601f82011682018060405250810190611fcc9190612f48565b611fd69190613b5b565b82111561210c57611fed611fe86104dd565b610bbc565b600260016002805490506120019190613b5b565b81548110612038577f4e487b7100000000000000000000000000000000000000000000000000000000600052603260045260246000fd5b9060005260206000209060050201600301546120549190613a7a565b600560009054906101000a900473ffffffffffffffffffffffffffffffffffffffff1673ffffffffffffffffffffffffffffffffffffffff166370a08231306040518263ffffffff1660e01b81526004016120af91906135de565b60206040518083038186803b1580156120c757600080fd5b505afa1580156120db573d6000803e3d6000fd5b505050506040513d601f19601f820116820180604052508101906120ff9190612f48565b6121099190613b5b565b91505b600560009054906101000a900473ffffffffffffffffffffffffffffffffffffffff1673ffffffffffffffffffffffffffffffffffffffff1663a9059cbb82846040518363ffffffff1660e01b8152600401612169929190613659565b602060405180830381600087803b15801561218357600080fd5b505af1158015612197573d6000803e3d6000fd5b505050506040513d601f19601f820116820180604052508101906121bb9190612ef6565b505050565b60016020528060005260406000206000915090508060000154908060010154908060020154908060030154908060040154908060050154908060060154908060070154905088565b60075481565b60085481565b600061225261224c30868660405160200161223193929190613622565b604051602081830303815290604052805190602001206127a1565b836127d1565b90509392505050565b612263612410565b73ffffffffffffffffffffffffffffffffffffffff1661228161174d565b73ffffffffffffffffffffffffffffffffffffffff16146122d7576040517f08c379a00000000000000000000000000000000000000000000000000000000081526004016122ce90613810565b60405180910390fd5b806009819055507fad219fed7e76fbd06f005484092a7e2a85d653e9e6be64f32f01c2bb5b21d0e08160405161230d91906137c2565b60405180910390a150565b612320612410565b73ffffffffffffffffffffffffffffffffffffffff1661233e61174d565b73ffffffffffffffffffffffffffffffffffffffff1614612394576040517f08c379a000000000000000000000000000000000000000000000000000000000815260040161238b90613810565b60405180910390fd5b600073ffffffffffffffffffffffffffffffffffffffff168173ffffffffffffffffffffffffffffffffffffffff161415612404576040517f08c379a00000000000000000000000000000000000000000000000000000000081526004016123fb90613742565b60405180910390fd5b61240d816126dd565b50565b600033905090565b60006002600160028054905061242e9190613b5b565b81548110612465577f4e487b7100000000000000000000000000000000000000000000000000000000600052603260045260246000fd5b9060005260206000209060050201600301549050811561249257828161248b9190613a7a565b90506124a1565b828161249e9190613b5b565b90505b6124a96104dd565b600260016002805490506124bd9190613b5b565b815481106124f4577f4e487b7100000000000000000000000000000000000000000000000000000000600052603260045260246000fd5b90600052602060002090600502016000015410156126765760016125166104dd565b6125209190613b5b565b600260016002805490506125349190613b5b565b8154811061256b577f4e487b7100000000000000000000000000000000000000000000000000000000600052603260045260246000fd5b90600052602060002090600502016001018190555060006040518060a001604052806125956104dd565b815260200160008152602001600260016002805490506125b59190613b5b565b815481106125ec577f4e487b7100000000000000000000000000000000000000000000000000000000600052603260045260246000fd5b906000526020600020906005020160020154815260200183815260200160008152509050600281908060018154018082558091505060019003906000526020600020906005020160009091909190915060008201518160000155602082015181600101556040820151816002015560608201518160030155608082015181600401555050506126d8565b806002600160028054905061268b9190613b5b565b815481106126c2577f4e487b7100000000000000000000000000000000000000000000000000000000600052603260045260246000fd5b9060005260206000209060050201600301819055505b505050565b60008060009054906101000a900473ffffffffffffffffffffffffffffffffffffffff169050816000806101000a81548173ffffffffffffffffffffffffffffffffffffffff021916908373ffffffffffffffffffffffffffffffffffffffff1602179055508173ffffffffffffffffffffffffffffffffffffffff168173ffffffffffffffffffffffffffffffffffffffff167f8be0079c531659141344cd1fd0a4f28419497f9722a3daafe3b4186f6b6457e060405160405180910390a35050565b6000816040516020016127b491906135b8565b604051602081830303815290604052805190602001209050919050565b60008060006127e085856127f8565b915091506127ed8161287b565b819250505092915050565b60008060418351141561283a5760008060006020860151925060408601519150606086015160001a905061282e87828585612bcc565b94509450505050612874565b60408351141561286b576000806020850151915060408501519050612860868383612cd9565b935093505050612874565b60006002915091505b9250929050565b600060048111156128b5577f4e487b7100000000000000000000000000000000000000000000000000000000600052602160045260246000fd5b8160048111156128ee577f4e487b7100000000000000000000000000000000000000000000000000000000600052602160045260246000fd5b14156128f957612bc9565b60016004811115612933577f4e487b7100000000000000000000000000000000000000000000000000000000600052602160045260246000fd5b81600481111561296c577f4e487b7100000000000000000000000000000000000000000000000000000000600052602160045260246000fd5b14156129ad576040517f08c379a00000000000000000000000000000000000000000000000000000000081526004016129a4906136e2565b60405180910390fd5b600260048111156129e7577f4e487b7100000000000000000000000000000000000000000000000000000000600052602160045260246000fd5b816004811115612a20577f4e487b7100000000000000000000000000000000000000000000000000000000600052602160045260246000fd5b1415612a61576040517f08c379a0000000000000000000000000000000000000000000000000000000008152600401612a5890613702565b60405180910390fd5b60036004811115612a9b577f4e487b7100000000000000000000000000000000000000000000000000000000600052602160045260246000fd5b816004811115612ad4577f4e487b7100000000000000000000000000000000000000000000000000000000600052602160045260246000fd5b1415612b15576040517f08c379a0000000000000000000000000000000000000000000000000000000008152600401612b0c90613762565b60405180910390fd5b600480811115612b4e577f4e487b7100000000000000000000000000000000000000000000000000000000600052602160045260246000fd5b816004811115612b87577f4e487b7100000000000000000000000000000000000000000000000000000000600052602160045260246000fd5b1415612bc8576040517f08c379a0000000000000000000000000000000000000000000000000000000008152600401612bbf906137f0565b60405180910390fd5b5b50565b6000807f7fffffffffffffffffffffffffffffff5d576e7357a4501ddfe92f46681b20a08360001c1115612c07576000600391509150612cd0565b601b8560ff1614158015612c1f5750601c8560ff1614155b15612c31576000600491509150612cd0565b600060018787878760405160008152602001604052604051612c569493929190613682565b6020604051602081039080840390855afa158015612c78573d6000803e3d6000fd5b505050602060405103519050600073ffffffffffffffffffffffffffffffffffffffff168173ffffffffffffffffffffffffffffffffffffffff161415612cc757600060019250925050612cd0565b80600092509250505b94509492505050565b6000806000807f7fffffffffffffffffffffffffffffffffffffffffffffffffffffffffffffff85169150601b8560ff1c019050612d1987828885612bcc565b935093505050935093915050565b60405180610100016040528060008152602001600081526020016000815260200160008152602001600081526020016000815260200160008152602001600081525090565b6000612d7f612d7a84613a2e565b6139fd565b905082815260208101848484011115612d9757600080fd5b612da2848285613c12565b509392505050565b600081359050612db981613d01565b92915050565b600081359050612dce81613d18565b92915050565b600081519050612de381613d18565b92915050565b600082601f830112612dfa57600080fd5b8135612e0a848260208601612d6c565b91505092915050565b600081359050612e2281613d2f565b92915050565b600081519050612e3781613d2f565b92915050565b600060208284031215612e4f57600080fd5b6000612e5d84828501612daa565b91505092915050565b600080600060608486031215612e7b57600080fd5b6000612e8986828701612daa565b9350506020612e9a86828701612e13565b925050604084013567ffffffffffffffff811115612eb757600080fd5b612ec386828701612de9565b9150509250925092565b600060208284031215612edf57600080fd5b6000612eed84828501612dbf565b91505092915050565b600060208284031215612f0857600080fd5b6000612f1684828501612dd4565b91505092915050565b600060208284031215612f3157600080fd5b6000612f3f84828501612e13565b91505092915050565b600060208284031215612f5a57600080fd5b6000612f6884828501612e28565b91505092915050565b60008060408385031215612f8457600080fd5b6000612f9285828601612e13565b9250506020612fa385828601612dbf565b9150509250929050565b60008060408385031215612fc057600080fd5b6000612fce85828601612e13565b925050602083013567ffffffffffffffff811115612feb57600080fd5b612ff785828601612de9565b9150509250929050565b61300a81613b8f565b82525050565b61301981613bad565b82525050565b61303061302b82613bad565b613c6a565b82525050565b61303f81613bee565b82525050565b6000613052601883613a5e565b91507f45434453413a20696e76616c6964207369676e617475726500000000000000006000830152602082019050919050565b6000613092601f83613a5e565b91507f45434453413a20696e76616c6964207369676e6174757265206c656e677468006000830152602082019050919050565b60006130d2601c83613a6f565b91507f19457468657265756d205369676e6564204d6573736167653a0a3332000000006000830152601c82019050919050565b6000613112601f83613a5e565b91507f5374616b696e6720726571756972657320706f7369746976652076616c7565006000830152602082019050919050565b6000613152602683613a5e565b91507f4f776e61626c653a206e6577206f776e657220697320746865207a65726f206160008301527f64647265737300000000000000000000000000000000000000000000000000006020830152604082019050919050565b60006131b8602283613a5e565b91507f45434453413a20696e76616c6964207369676e6174757265202773272076616c60008301527f75650000000000000000000000000000000000000000000000000000000000006020830152604082019050919050565b600061321e601283613a5e565b91507f4e6f7468696e6720776173207374616b656400000000000000000000000000006000830152602082019050919050565b600061325e602e83613a5e565b91507f46756e647320617265206c6f636b656420756e74696c20636f6f6c646f776e2060008301527f706572696f64206973206f7665720000000000000000000000000000000000006020830152604082019050919050565b60006132c4601083613a5e565b91507f436f6f6c20646f776e20706572696f64000000000000000000000000000000006000830152602082019050919050565b6000613304602283613a5e565b91507f45434453413a20696e76616c6964207369676e6174757265202776272076616c60008301527f75650000000000000000000000000000000000000000000000000000000000006020830152604082019050919050565b600061336a602083613a5e565b91507f4f776e61626c653a2063616c6c6572206973206e6f7420746865206f776e65726000830152602082019050919050565b60006133aa603b83613a5e565b91507f5369676e6174757265206f662074686520696e70757420776173206e6f74207360008301527f69676e656420627920277369676e6174757265416464726573732700000000006020830152604082019050919050565b6000613410601183613a5e565b91507f5265776172642070657220706572696f640000000000000000000000000000006000830152602082019050919050565b6000613450603983613a5e565b91507f546865207374616b696e6720636f6e7472616374206973206e6f74206170707260008301527f6f76656420746f207374616b65207468697320616d6f756e74000000000000006020830152604082019050919050565b60006134b6601483613a5e565b91507f4e6f7468696e6720746f2077697468647261776c0000000000000000000000006000830152602082019050919050565b61010082016000820151613500600085018261358b565b506020820151613513602085018261358b565b506040820151613526604085018261358b565b506060820151613539606085018261358b565b50608082015161354c608085018261358b565b5060a082015161355f60a085018261358b565b5060c082015161357260c085018261358b565b5060e082015161358560e085018261358b565b50505050565b61359481613bd7565b82525050565b6135a381613bd7565b82525050565b6135b281613be1565b82525050565b60006135c3826130c5565b91506135cf828461301f565b60208201915081905092915050565b60006020820190506135f36000830184613001565b92915050565b600060408201905061360e6000830185613001565b61361b6020830184613001565b9392505050565b60006060820190506136376000830186613001565b6136446020830185613001565b613651604083018461359a565b949350505050565b600060408201905061366e6000830185613001565b61367b602083018461359a565b9392505050565b60006080820190506136976000830187613010565b6136a460208301866135a9565b6136b16040830185613010565b6136be6060830184613010565b95945050505050565b60006020820190506136dc6000830184613036565b92915050565b600060208201905081810360008301526136fb81613045565b9050919050565b6000602082019050818103600083015261371b81613085565b9050919050565b6000602082019050818103600083015261373b81613105565b9050919050565b6000602082019050818103600083015261375b81613145565b9050919050565b6000602082019050818103600083015261377b816131ab565b9050919050565b6000602082019050818103600083015261379b81613211565b9050919050565b600060208201905081810360008301526137bb81613251565b9050919050565b600060408201905081810360008301526137db816132b7565b90506137ea602083018461359a565b92915050565b60006020820190508181036000830152613809816132f7565b9050919050565b600060208201905081810360008301526138298161335d565b9050919050565b600060208201905081810360008301526138498161339d565b9050919050565b6000604082019050818103600083015261386981613403565b9050613878602083018461359a565b92915050565b6000602082019050818103600083015261389781613443565b9050919050565b600060208201905081810360008301526138b7816134a9565b9050919050565b60006020820190506138d3600083018461359a565b92915050565b6000610120820190506138ef600083018561359a565b6138fc60208301846134e9565b9392505050565b6000604082019050613918600083018561359a565b613925602083018461359a565b9392505050565b600060a082019050613941600083018861359a565b61394e602083018761359a565b61395b604083018661359a565b613968606083018561359a565b613975608083018461359a565b9695505050505050565b600061010082019050613995600083018b61359a565b6139a2602083018a61359a565b6139af604083018961359a565b6139bc606083018861359a565b6139c9608083018761359a565b6139d660a083018661359a565b6139e360c083018561359a565b6139f060e083018461359a565b9998505050505050505050565b6000604051905081810181811067ffffffffffffffff82111715613a2457613a23613cd2565b5b8060405250919050565b600067ffffffffffffffff821115613a4957613a48613cd2565b5b601f19601f8301169050602081019050919050565b600082825260208201905092915050565b600081905092915050565b6000613a8582613bd7565b9150613a9083613bd7565b9250827fffffffffffffffffffffffffffffffffffffffffffffffffffffffffffffffff03821115613ac557613ac4613c74565b5b828201905092915050565b6000613adb82613bd7565b9150613ae683613bd7565b925082613af657613af5613ca3565b5b828204905092915050565b6000613b0c82613bd7565b9150613b1783613bd7565b9250817fffffffffffffffffffffffffffffffffffffffffffffffffffffffffffffffff0483118215151615613b5057613b4f613c74565b5b828202905092915050565b6000613b6682613bd7565b9150613b7183613bd7565b925082821015613b8457613b83613c74565b5b828203905092915050565b6000613b9a82613bb7565b9050919050565b60008115159050919050565b6000819050919050565b600073ffffffffffffffffffffffffffffffffffffffff82169050919050565b6000819050919050565b600060ff82169050919050565b6000613bf982613c00565b9050919050565b6000613c0b82613bb7565b9050919050565b82818337600083830152505050565b6000613c2c82613bd7565b91507fffffffffffffffffffffffffffffffffffffffffffffffffffffffffffffffff821415613c5f57613c5e613c74565b5b600182019050919050565b6000819050919050565b7f4e487b7100000000000000000000000000000000000000000000000000000000600052601160045260246000fd5b7f4e487b7100000000000000000000000000000000000000000000000000000000600052601260045260246000fd5b7f4e487b7100000000000000000000000000000000000000000000000000000000600052604160045260246000fd5b613d0a81613b8f565b8114613d1557600080fd5b50565b613d2181613ba1565b8114613d2c57600080fd5b50565b613d3881613bd7565b8114613d4357600080fd5b5056fea26469706673582212205bf7de69bf58ce344b05243fd8ea7504ce84bbde99610974e6b3177b559300d864736f6c63430008000033",
  "immutableReferences": {},
  "source": "//SPDX-License-Identifier: UNLICENSED\npragma solidity ^0.8.0;\n\nimport \"@openzeppelin/contracts/token/ERC20/IERC20.sol\";\nimport \"@openzeppelin/contracts/access/Ownable.sol\";\nimport \"@openzeppelin/contracts/utils/math/SafeMath.sol\";\nimport \"@openzeppelin/contracts/utils/cryptography/ECDSA.sol\";\n\n/**\n * @title A staking contract for Envoy tokens\n * @author Kasper De Blieck (kasperdeblieck@envoy.art)\n * This contract allows Envoy token owners to stake their funds.\n * Staking funds will reward a periodic compounded interest.\n */\ncontract EnvoyStakingV2 is Ownable {\n    \n    using SafeMath for uint;\n\n    event ConfigUpdate(string field, uint value);\n    event Staking(address indexed stakeholder_, uint stake_);\n    event Rewarding(address indexed stakeholder_, uint reward_, uint numberOfPeriods);\n\n    struct StakeHolder {\n        uint stakingBalance; // Staking balance of the stakeholder\n        uint weight; // The weight of the staker\n        uint startDate; // The date the staker joined\n        uint lastClaimed; // The date the stakeholder claimed the last rewards\n        uint rewardPeriod; // The period definition that was last used to claim\n        uint releaseDate; // Date on which the stakeholder is able to withdraw the staked funds\n        uint releaseAmount; // Amount to be released at the release date\n        // uint newWeigth;\n        uint newStake;\n    }\n\n    struct RewardPeriod {\n        uint startDate;\n        uint endDate;\n        uint rewardPerPeriod;\n        uint totalWeightedStakingBalance;\n        uint totalRewardsClaimed;\n    }\n\n    // Keeps track of user information\n    mapping(address => StakeHolder) public stakeholders;\n\n    // Keeps track of \n    RewardPeriod[] public rewardPeriods;\n\n    // Keeps track of totalStake per period\n    mapping(uint => uint) public totalWeightedStake;\n    \n    address public signatureAddress;\n\n    IERC20 public stakingToken;\n\n    // Decimals used for interest calculation\n    // uint public interestDecimals = 1000000000000;\n\n    uint public startDate;\n    uint public endDate;\n    // uint public rewardPerBlock = 958000 * 10**18;\n    uint public rewardPeriodLength= 7 days;\n    uint public cooldown = 7 days;\n\n    uint public maxWeight;\n\n    string private _name = \"ENVOY - STAKING\";\n    string private _symbol = \"ENV-S\";\n\n    constructor(address signatureAddress_, address stakingTokenAddress) {\n        signatureAddress = signatureAddress_;\n        stakingToken = IERC20(stakingTokenAddress);\n\n        startDate = block.timestamp;            \n        \n        RewardPeriod memory rp = RewardPeriod({\n            startDate: 0,\n            endDate: 0,\n            rewardPerPeriod: 958000 * 10**18,\n            totalWeightedStakingBalance: 0,\n            totalRewardsClaimed: 0\n        });\n        rewardPeriods.push(rp);\n    }\n\n\n\n\n    /**\n     * Increase the stake of the sender by a value.\n     * @param weight_ The new weight.\n     * @param signature A signature proving the sender\n     *  is allowed to update his weight.\n     */\n    function updateWeight(uint weight_, bytes memory signature) public{\n        address sender = _msgSender();\n        require(signatureAddress == _recoverSigner(sender, weight_, signature),\n            \"Signature of the input was not signed by 'signatureAddress'\");\n\n        StakeHolder storage stakeholder = stakeholders[sender];\n\n        // Claim previous rewards with old weight\n        claimRewards(false);\n\n        updateTotalWeightedStakingBalance((weight_ - stakeholder.weight)*stakeholder.stakingBalance, true);\n        // stakeholder.newWeight = weight_\n        stakeholder.weight = weight_;\n\n\n        // Keep track of highest weight\n        if(weight_ > maxWeight){\n            maxWeight = weight_;\n        }\n    }\n\n    /**\n     * Increase the stake of the sender by a value.\n     * @param amount The amount to stake\n     */\n    function stake(uint amount) public {\n        address sender = _msgSender();\n\n        require(amount > 0, \"Staking requires positive value\");\n        require(stakingToken.allowance(sender, address(this)) >= amount,\n            \"The staking contract is not approved to stake this amount\");\n\n        stakingToken.transferFrom(sender, address(this), amount);\n\n        StakeHolder storage stakeholder = stakeholders[sender];\n\n        if(stakeholder.startDate == 0) {\n            stakeholder.startDate = block.timestamp;\n            stakeholder.lastClaimed = block.timestamp;\n            stakeholder.rewardPeriod = rewardPeriods.length - 1;\n        }\n\n        // Claim previous rewards with old staked value\n        claimRewards(false);\n\n        stakeholder.newStake = amount;\n\n        updateTotalWeightedStakingBalance(amount*(stakeholder.weight + 1), true);\n\n        emit Staking(sender, amount);\n\n    }\n\n    function requestWithdrawal(uint amount, bool claimRewardsFirst) public {\n        address sender = _msgSender();\n        StakeHolder storage stakeholder = stakeholders[sender];\n        \n        require(stakeholder.stakingBalance >= 0, \"Nothing was staked\");\n\n        stakeholder.releaseDate = block.timestamp + cooldown;\n        \n        // Claim rewards with current stake\n        // Can be skipped as failsafe in case claiming rewards fails,\n        // but REWARDS ARE LOST.\n        if (claimRewardsFirst){\n            claimRewards(false);\n        }\n        \n        if(amount >= stakeholder.stakingBalance){\n            amount = stakeholder.stakingBalance;\n            stakeholder.startDate = 0;\n        }\n\n        stakeholder.releaseDate = block.timestamp + cooldown;\n        stakeholder.releaseAmount = amount;\n        updateTotalWeightedStakingBalance((stakeholder.stakingBalance - amount)*(stakeholder.weight+1), false);\n        stakeholder.stakingBalance -= amount;\n    }\n\n    /**\n     * Withdraw staked funds from the contract.\n     * This will calculate the owed rewards for previous periods,\n     * the current interest period will end without reward.\n     */\n    function withdrawFunds() public {\n        address sender = _msgSender();\n        StakeHolder storage stakeholder = stakeholders[sender];\n\n        require(stakeholder.releaseDate != 0 && stakeholder.releaseDate < block.timestamp, \"Funds are locked until cooldown period is over\");\n        require(stakeholder.releaseAmount >= 0, \"Nothing to withdrawl\");\n        \n        stakingToken.transfer(sender, stakeholder.releaseAmount);\n        stakeholder.releaseAmount = 0;\n\n    }\n\n    /**\n     * Function to claim the rewards earned by staking.\n     * @dev uses calculateRewards to get the amount owed\n     * @param withdrawl if true, send the rewards to the stakeholder.\n     *  if false, add the rewards to the staking balance of the stakeholder.\n     */\n    function claimRewards(bool withdrawl) public {\n\n        address stakeholderAddress = _msgSender();\n        StakeHolder storage stakeholder = stakeholders[stakeholderAddress];\n\n        // Number of periods for which rewards will be paid\n        uint n = currentPeriod() - stakeholder.lastClaimed;\n\n        // If no stake is present or no time passed since last claim, 0 can be returned.\n        if ((stakeholder.stakingBalance == 0 && stakeholder.newStake == 0 ) || n == 0){\n        }\n\n        // Calculate the rewards and new stakeholder state\n        (uint reward, StakeHolder memory newStakeholder) = calculateRewards(stakeholderAddress);\n        \n        stakeholder.stakingBalance = newStakeholder.stakingBalance;\n        stakeholder.weight = newStakeholder.weight;\n        stakeholder.newStake = newStakeholder.newStake;\n        stakeholder.lastClaimed = currentPeriod();\n        stakeholder.rewardPeriod = rewardPeriods.length - 1;\n\n        // If the stakeholder wants to redraw the rewards;\n        // Send to his wallet. Else, update stakingbalance.\n        if (withdrawl){\n            stakingToken.transfer(_msgSender(), reward);\n        } else {\n            stakeholder.stakingBalance += reward;\n            updateTotalWeightedStakingBalance(reward*(stakeholder.weight+1), true);\n        }\n\n        if (rewardPeriods[rewardPeriods.length - 1].startDate < currentPeriod()){\n            rewardPeriods[rewardPeriods.length - 1].endDate = currentPeriod() - 1;\n            RewardPeriod memory rp = RewardPeriod({\n                startDate: currentPeriod(),\n                endDate: 0,\n                rewardPerPeriod: rewardPeriods[rewardPeriods.length - 1].rewardPerPeriod,\n                totalWeightedStakingBalance: rewardPeriods[rewardPeriods.length - 1].totalWeightedStakingBalance,\n                totalRewardsClaimed: reward\n            });\n            rewardPeriods.push(rp);\n        } else {\n            rewardPeriods[rewardPeriods.length - 1].totalRewardsClaimed += reward;\n        }\n\n        emit Rewarding(stakeholderAddress, reward, n);\n\n    }\n\n    /**\n     * Calculate the rewards owed to a stakeholder.\n     * The interest will be calculated based on:\n     *  - The amount staked of the stakeholder\n     *  - The weight of the stakeholder\n     *  - The amount of interest periods staked\n     *  - The base and extra interest of the contract\n     * The formula of compounding interest is applied.\n     * @param stakeholderAddress The address to calculate rewards for\n     * @return reward The rewards of the stakeholder for previous periods.\n     * @return stakeholder The new object containing stakeholder state\n     */\n    function calculateRewards(address stakeholderAddress) public view returns(uint reward, StakeHolder memory stakeholder) {\n\n        stakeholder = stakeholders[stakeholderAddress];\n        \n        // Number of accounts for which rewards will be paid\n        uint n = currentPeriod() - stakeholder.lastClaimed;\n\n        // If no stake is present or no time passed since last claim, 0 can be returned.\n        if ((stakeholder.stakingBalance == 0 && stakeholder.newStake == 0 ) || n == 0){\n            return (0, stakeholder);\n        }\n\n        // Update the timestamp of the timestamp for the staking period that was not rewarded yet\n        uint s = stakeholder.stakingBalance + reward;        \n\n        uint unclaimedRewards = totalUnclaimedRewards(stakeholder.lastClaimed);\n\n        for (uint p = stakeholder.rewardPeriod; p < rewardPeriods.length; p++) {\n            // Handle start if it is not equal to the start of the reward period\n            uint start = rewardPeriods[p].startDate < stakeholder.lastClaimed ?\n                stakeholder.lastClaimed : rewardPeriods[p].startDate;\n\n            // Handle stop if end date is not defined (last reward period)\n            uint end = rewardPeriods[p].endDate == 0 ?\n                currentPeriod() : rewardPeriods[p].endDate;\n\n            // Loop over all periods\n            unclaimedRewards += rewardPeriods[p].rewardPerPeriod - rewardPeriods[p].totalRewardsClaimed;\n            uint rewardPerStake = rewardPeriods[p].rewardPerPeriod / (rewardPeriods[p].totalWeightedStakingBalance + unclaimedRewards);\n            for (uint q = start; q < end; q++) {\n                    s += s*(stakeholder.weight+1)*rewardPerStake;\n                    \n                    // set new values if necessary\n                    // if(stakeholder.newWeight > 0){\n                    //     stakeholder.weight = stakeholder.newWeight;\n                    //     stakeholder.newWeight = 0;\n                    // }\n                    if(stakeholder.newStake > 0){\n                        stakeholder.stakingBalance += stakeholder.newStake;\n                        stakeholder.newStake = 0;\n                    }\n                }\n        }\n\n        reward = s - stakeholder.stakingBalance;\n    \n    }\n\n\n\n    /**\n     * Checks if the signature is created out of the contract address, sender and new weight,\n     * signed by the private key of the signerAddress\n     * @param sender the address of the message sender\n     * @param weight amount of tokens to mint\n     * @param signature a signature of the contract address, senderAddress and tokensId.\n     *   Should be signed by the private key of signerAddress.\n     */\n    function _recoverSigner(address sender, uint weight, bytes memory signature) public view returns (address){\n        return ECDSA.recover(ECDSA.toEthSignedMessageHash(keccak256(abi.encode(address(this), sender, weight))) , signature);\n    }\n\n    /**\n     * Owner function to transfer the staking token from the contract\n     * address to the contract owner.\n     * The amount cannot exceed the amount staked by the stakeholders,\n     * making sure the funds of stakeholders stay in the contract.\n     * @param amount the amount to withraw as owner\n     */\n    function withdrawRemainingFunds(uint amount) public onlyOwner{\n        address sender = _msgSender();\n        \n        // Make sure the staked amounts or owed rewards are never withdrawn\n        if(amount > stakingToken.balanceOf(address(this)) - (rewardPeriods[rewardPeriods.length - 1].totalWeightedStakingBalance + totalUnclaimedRewards(currentPeriod()))){\n            amount = stakingToken.balanceOf(address(this)) - (rewardPeriods[rewardPeriods.length - 1].totalWeightedStakingBalance + totalUnclaimedRewards(currentPeriod()));\n        }\n\n        stakingToken.transfer(sender, amount);\n    }\n\n    // List of owner functions to update the contract\n    function updateSignatureAddress(address value) public onlyOwner {\n        signatureAddress = value; \n    }\n\n    /**\n     * Updates the amount of decimals used for the interest rate.\n     * After this accuracy, rounding will be applied\n     * and approximations will stack over long time periods.\n     * @param value The number of decimals. NOT the number to devide with.\n     *  e.g.: to use 3 decimals, input 3 (10**3) and not 1000.\n     */\n    // function updateInterestDecimals(uint value) public onlyOwner{\n    //     // First adjust interest rates to new decimals.\n    //     // Make sure no precision is lost!\n    //     value = 10 ** value;\n    //     baseInterest = baseInterest * value / interestDecimals;\n    //     extraInterest = extraInterest * value / interestDecimals;\n    //     interestDecimals = value;\n    //     emit ConfigUpdate('Decimals', value);\n    // }\n\n    // function updateBaseInterest(uint value) public onlyOwner{\n    //     baseInterest = value;\n    //     emit ConfigUpdate('Base interest', value);\n    // }\n\n    // function updateExtraInterest(uint value) public onlyOwner{\n    //     extraInterest = value;\n    //     emit ConfigUpdate('Extra interest', value);\n    // }\n\n    // function updateRewardPeriod(uint value) public onlyOwner{\n    //     rewardPeriodLength = value;\n    //     emit ConfigUpdate('Interest period', value);\n    // }\n\n    function updateCoolDownPeriod(uint value) public onlyOwner{\n        cooldown = value;\n        emit ConfigUpdate('Cool down period', value);\n    }\n\n    function updateRewardsPerPeriod(uint value) public onlyOwner{\n        if (rewardPeriods[rewardPeriods.length - 1].startDate < currentPeriod()){\n            rewardPeriods[rewardPeriods.length - 1].endDate = currentPeriod() - 1;\n            RewardPeriod memory rp = RewardPeriod({\n                startDate: currentPeriod(),\n                endDate: 0,\n                rewardPerPeriod: value,\n                totalWeightedStakingBalance: rewardPeriods[rewardPeriods.length - 1].totalWeightedStakingBalance,\n                totalRewardsClaimed: 0\n            });\n            rewardPeriods.push(rp);\n        } else {\n            rewardPeriods[rewardPeriods.length - 1].rewardPerPeriod = value;\n        }        emit ConfigUpdate('Reward per period', value);\n    }\n\n    function currentPeriod() public view returns(uint period){\n        period = (startDate - block.timestamp) / rewardPeriodLength;\n    }\n\n    function totalUnclaimedRewards(uint period) public view returns(uint rewards){\n        uint i = 0;\n        while(rewardPeriods[i].endDate > 0 || rewardPeriods[i].endDate < period ){\n            rewards += (rewardPeriods[i].endDate - rewardPeriods[i].startDate)\n                * rewardPeriods[i].rewardPerPeriod\n                - rewardPeriods[i].totalRewardsClaimed;\n            i++;\n        }\n        rewards += (period - rewardPeriods[i].startDate) * rewardPeriods[i].rewardPerPeriod - rewardPeriods[i].totalRewardsClaimed;\n    }\n\n    function updateTotalWeightedStakingBalance(uint amount, bool increase) internal {\n        // Update this period total stake (or define a new one when it already)\n        uint newTotalWeightedStake = rewardPeriods[rewardPeriods.length - 1].totalWeightedStakingBalance;\n        if(increase){\n            newTotalWeightedStake += amount;\n        } else{\n            newTotalWeightedStake -= amount;\n        }\n        \n        if (rewardPeriods[rewardPeriods.length - 1].startDate < currentPeriod()){\n            rewardPeriods[rewardPeriods.length - 1].endDate = currentPeriod() - 1;\n            RewardPeriod memory rp = RewardPeriod({\n                startDate: currentPeriod(),\n                endDate: 0,\n                rewardPerPeriod: rewardPeriods[rewardPeriods.length - 1].rewardPerPeriod,\n                totalWeightedStakingBalance: newTotalWeightedStake,\n                totalRewardsClaimed: 0\n            });\n            rewardPeriods.push(rp);\n        } else {\n            rewardPeriods[rewardPeriods.length - 1].totalWeightedStakingBalance = newTotalWeightedStake;\n        }\n    }\n\n\n}",
  "sourcePath": "/Users/Baas/repos/envoy/repos/staking/contracts/contracts/EnvoyStakingv2 - constant total reward.sol",
  "compiler": {
    "name": "solc",
    "version": "0.8.0+commit.c7dfd78e.Emscripten.clang"
  },
  "schemaVersion": "3.4.2",
  "updatedAt": "2021-12-17T17:03:16.890Z",
  "devdoc": {
    "author": "Kasper De Blieck (kasperdeblieck@envoy.art) This contract allows Envoy token owners to stake their funds. Staking funds will reward a periodic compounded interest.",
    "kind": "dev",
    "methods": {
      "_recoverSigner(address,uint256,bytes)": {
        "params": {
          "sender": "the address of the message sender",
          "signature": "a signature of the contract address, senderAddress and tokensId.   Should be signed by the private key of signerAddress.",
          "weight": "amount of tokens to mint"
        }
      },
      "calculateRewards(address)": {
        "params": {
          "stakeholderAddress": "The address to calculate rewards for"
        },
        "returns": {
          "reward": "The rewards of the stakeholder for previous periods.",
          "stakeholder": "The new object containing stakeholder state"
        }
      },
      "claimRewards(bool)": {
        "details": "uses calculateRewards to get the amount owed",
        "params": {
          "withdrawl": "if true, send the rewards to the stakeholder.  if false, add the rewards to the staking balance of the stakeholder."
        }
      },
      "owner()": {
        "details": "Returns the address of the current owner."
      },
      "renounceOwnership()": {
        "details": "Leaves the contract without owner. It will not be possible to call `onlyOwner` functions anymore. Can only be called by the current owner. NOTE: Renouncing ownership will leave the contract without an owner, thereby removing any functionality that is only available to the owner."
      },
      "stake(uint256)": {
        "params": {
          "amount": "The amount to stake"
        }
      },
      "transferOwnership(address)": {
        "details": "Transfers ownership of the contract to a new account (`newOwner`). Can only be called by the current owner."
      },
      "updateCoolDownPeriod(uint256)": {
        "params": {
          "value": "The number of decimals. NOT the number to devide with.  e.g.: to use 3 decimals, input 3 (10**3) and not 1000."
        }
      },
      "updateWeight(uint256,bytes)": {
        "params": {
          "signature": "A signature proving the sender  is allowed to update his weight.",
          "weight_": "The new weight."
        }
      },
      "withdrawRemainingFunds(uint256)": {
        "params": {
          "amount": "the amount to withraw as owner"
        }
      }
    },
    "title": "A staking contract for Envoy tokens",
    "version": 1
  },
  "userdoc": {
    "kind": "user",
    "methods": {
      "_recoverSigner(address,uint256,bytes)": {
        "notice": "Checks if the signature is created out of the contract address, sender and new weight, signed by the private key of the signerAddress"
      },
      "calculateRewards(address)": {
        "notice": "Calculate the rewards owed to a stakeholder. The interest will be calculated based on:  - The amount staked of the stakeholder  - The weight of the stakeholder  - The amount of interest periods staked  - The base and extra interest of the contract The formula of compounding interest is applied."
      },
      "claimRewards(bool)": {
        "notice": "Function to claim the rewards earned by staking."
      },
      "stake(uint256)": {
        "notice": "Increase the stake of the sender by a value."
      },
      "updateCoolDownPeriod(uint256)": {
        "notice": "Updates the amount of decimals used for the interest rate. After this accuracy, rounding will be applied and approximations will stack over long time periods."
      },
      "updateWeight(uint256,bytes)": {
        "notice": "Increase the stake of the sender by a value."
      },
      "withdrawFunds()": {
        "notice": "Withdraw staked funds from the contract. This will calculate the owed rewards for previous periods, the current interest period will end without reward."
      },
      "withdrawRemainingFunds(uint256)": {
        "notice": "Owner function to transfer the staking token from the contract address to the contract owner. The amount cannot exceed the amount staked by the stakeholders, making sure the funds of stakeholders stay in the contract."
      }
    },
    "version": 1
  }
}