{
  "contractName": "EnvoyStaking",
  "abi": [
    {
      "inputs": [
        {
          "internalType": "address",
          "name": "signatureAddress_",
          "type": "address"
        },
        {
          "internalType": "address",
          "name": "stakingTokenAddress",
          "type": "address"
        }
      ],
      "stateMutability": "nonpayable",
      "type": "constructor"
    },
    {
      "anonymous": false,
      "inputs": [
        {
          "indexed": false,
          "internalType": "string",
          "name": "field",
          "type": "string"
        },
        {
          "indexed": false,
          "internalType": "uint256",
          "name": "value",
          "type": "uint256"
        }
      ],
      "name": "ConfigUpdate",
      "type": "event"
    },
    {
      "anonymous": false,
      "inputs": [
        {
          "indexed": true,
          "internalType": "address",
          "name": "previousOwner",
          "type": "address"
        },
        {
          "indexed": true,
          "internalType": "address",
          "name": "newOwner",
          "type": "address"
        }
      ],
      "name": "OwnershipTransferred",
      "type": "event"
    },
    {
      "anonymous": false,
      "inputs": [
        {
          "indexed": true,
          "internalType": "address",
          "name": "stakeholder_",
          "type": "address"
        },
        {
          "indexed": false,
          "internalType": "uint256",
          "name": "reward_",
          "type": "uint256"
        },
        {
          "indexed": false,
          "internalType": "uint256",
          "name": "periods_",
          "type": "uint256"
        }
      ],
      "name": "Rewarding",
      "type": "event"
    },
    {
      "anonymous": false,
      "inputs": [
        {
          "indexed": true,
          "internalType": "address",
          "name": "stakeholder_",
          "type": "address"
        },
        {
          "indexed": false,
          "internalType": "uint256",
          "name": "stake_",
          "type": "uint256"
        }
      ],
      "name": "Staking",
      "type": "event"
    },
    {
      "inputs": [],
      "name": "baseInterest",
      "outputs": [
        {
          "internalType": "uint256",
          "name": "",
          "type": "uint256"
        }
      ],
      "stateMutability": "view",
      "type": "function"
    },
    {
      "inputs": [],
      "name": "cooldown",
      "outputs": [
        {
          "internalType": "uint256",
          "name": "",
          "type": "uint256"
        }
      ],
      "stateMutability": "view",
      "type": "function"
    },
    {
      "inputs": [],
      "name": "extraInterest",
      "outputs": [
        {
          "internalType": "uint256",
          "name": "",
          "type": "uint256"
        }
      ],
      "stateMutability": "view",
      "type": "function"
    },
    {
      "inputs": [],
      "name": "interestDecimals",
      "outputs": [
        {
          "internalType": "uint256",
          "name": "",
          "type": "uint256"
        }
      ],
      "stateMutability": "view",
      "type": "function"
    },
    {
      "inputs": [],
      "name": "interestPeriod",
      "outputs": [
        {
          "internalType": "uint256",
          "name": "",
          "type": "uint256"
        }
      ],
      "stateMutability": "view",
      "type": "function"
    },
    {
      "inputs": [],
      "name": "maxWeight",
      "outputs": [
        {
          "internalType": "uint256",
          "name": "",
          "type": "uint256"
        }
      ],
      "stateMutability": "view",
      "type": "function"
    },
    {
      "inputs": [],
      "name": "owner",
      "outputs": [
        {
          "internalType": "address",
          "name": "",
          "type": "address"
        }
      ],
      "stateMutability": "view",
      "type": "function"
    },
    {
      "inputs": [],
      "name": "renounceOwnership",
      "outputs": [],
      "stateMutability": "nonpayable",
      "type": "function"
    },
    {
      "inputs": [],
      "name": "signatureAddress",
      "outputs": [
        {
          "internalType": "address",
          "name": "",
          "type": "address"
        }
      ],
      "stateMutability": "view",
      "type": "function"
    },
    {
      "inputs": [
        {
          "internalType": "address",
          "name": "",
          "type": "address"
        }
      ],
      "name": "stakeholders",
      "outputs": [
        {
          "internalType": "uint256",
          "name": "stakingBalance",
          "type": "uint256"
        },
        {
          "internalType": "uint256",
          "name": "weight",
          "type": "uint256"
        },
        {
          "internalType": "uint256",
          "name": "startDate",
          "type": "uint256"
        },
        {
          "internalType": "uint256",
          "name": "interestDate",
          "type": "uint256"
        },
        {
          "internalType": "uint256",
          "name": "newStake",
          "type": "uint256"
        },
        {
          "internalType": "uint256",
          "name": "newWeight",
          "type": "uint256"
        }
      ],
      "stateMutability": "view",
      "type": "function"
    },
    {
      "inputs": [],
      "name": "stakingToken",
      "outputs": [
        {
          "internalType": "contract IERC20",
          "name": "",
          "type": "address"
        }
      ],
      "stateMutability": "view",
      "type": "function"
    },
    {
      "inputs": [],
      "name": "totalStake",
      "outputs": [
        {
          "internalType": "uint256",
          "name": "",
          "type": "uint256"
        }
      ],
      "stateMutability": "view",
      "type": "function"
    },
    {
      "inputs": [
        {
          "internalType": "address",
          "name": "newOwner",
          "type": "address"
        }
      ],
      "name": "transferOwnership",
      "outputs": [],
      "stateMutability": "nonpayable",
      "type": "function"
    },
    {
      "inputs": [
        {
          "internalType": "uint256",
          "name": "weight_",
          "type": "uint256"
        },
        {
          "internalType": "bytes",
          "name": "signature",
          "type": "bytes"
        },
        {
          "internalType": "bool",
          "name": "instant",
          "type": "bool"
        }
      ],
      "name": "updateWeight",
      "outputs": [],
      "stateMutability": "nonpayable",
      "type": "function"
    },
    {
      "inputs": [
        {
          "internalType": "uint256",
          "name": "amount",
          "type": "uint256"
        },
        {
          "internalType": "bool",
          "name": "instant",
          "type": "bool"
        }
      ],
      "name": "stake",
      "outputs": [],
      "stateMutability": "nonpayable",
      "type": "function"
    },
    {
      "inputs": [
        {
          "internalType": "uint256",
          "name": "amount",
          "type": "uint256"
        }
      ],
      "name": "withdrawFunds",
      "outputs": [],
      "stateMutability": "nonpayable",
      "type": "function"
    },
    {
      "inputs": [
        {
          "internalType": "bool",
          "name": "withdrawl",
          "type": "bool"
        }
      ],
      "name": "claimRewards",
      "outputs": [],
      "stateMutability": "nonpayable",
      "type": "function"
    },
    {
      "inputs": [
        {
          "internalType": "address",
          "name": "stakeholderAddress",
          "type": "address"
        }
      ],
      "name": "calculateRewards",
      "outputs": [
        {
          "internalType": "uint256",
          "name": "reward",
          "type": "uint256"
        },
        {
          "components": [
            {
              "internalType": "uint256",
              "name": "stakingBalance",
              "type": "uint256"
            },
            {
              "internalType": "uint256",
              "name": "weight",
              "type": "uint256"
            },
            {
              "internalType": "uint256",
              "name": "startDate",
              "type": "uint256"
            },
            {
              "internalType": "uint256",
              "name": "interestDate",
              "type": "uint256"
            },
            {
              "internalType": "uint256",
              "name": "newStake",
              "type": "uint256"
            },
            {
              "internalType": "uint256",
              "name": "newWeight",
              "type": "uint256"
            }
          ],
          "internalType": "struct EnvoyStaking.StakeHolder",
          "name": "stakeholder",
          "type": "tuple"
        }
      ],
      "stateMutability": "view",
      "type": "function"
    },
    {
      "inputs": [
        {
          "internalType": "address",
          "name": "sender",
          "type": "address"
        },
        {
          "internalType": "uint256",
          "name": "weight",
          "type": "uint256"
        },
        {
          "internalType": "bytes",
          "name": "signature",
          "type": "bytes"
        }
      ],
      "name": "_recoverSigner",
      "outputs": [
        {
          "internalType": "address",
          "name": "",
          "type": "address"
        }
      ],
      "stateMutability": "view",
      "type": "function"
    },
    {
      "inputs": [
        {
          "internalType": "uint256",
          "name": "amount",
          "type": "uint256"
        }
      ],
      "name": "withdrawRemainingFunds",
      "outputs": [],
      "stateMutability": "nonpayable",
      "type": "function"
    },
    {
      "inputs": [
        {
          "internalType": "address",
          "name": "value",
          "type": "address"
        }
      ],
      "name": "updateSignatureAddress",
      "outputs": [],
      "stateMutability": "nonpayable",
      "type": "function"
    },
    {
      "inputs": [
        {
          "internalType": "uint256",
          "name": "value",
          "type": "uint256"
        }
      ],
      "name": "updateInterestDecimals",
      "outputs": [],
      "stateMutability": "nonpayable",
      "type": "function"
    },
    {
      "inputs": [
        {
          "internalType": "uint256",
          "name": "value",
          "type": "uint256"
        }
      ],
      "name": "updateBaseInterest",
      "outputs": [],
      "stateMutability": "nonpayable",
      "type": "function"
    },
    {
      "inputs": [
        {
          "internalType": "uint256",
          "name": "value",
          "type": "uint256"
        }
      ],
      "name": "updateExtraInterest",
      "outputs": [],
      "stateMutability": "nonpayable",
      "type": "function"
    },
    {
      "inputs": [
        {
          "internalType": "uint256",
          "name": "value",
          "type": "uint256"
        }
      ],
      "name": "updateInterestPeriod",
      "outputs": [],
      "stateMutability": "nonpayable",
      "type": "function"
    },
    {
      "inputs": [
        {
          "internalType": "uint256",
          "name": "value",
          "type": "uint256"
        }
      ],
      "name": "updateCoolDownPeriod",
      "outputs": [],
      "stateMutability": "nonpayable",
      "type": "function"
    }
  ],
  "bytecode": "0x608060405264e8d4a5100060045563ee6b280060055563ee6b28006006556213c6806007556202a3006008553480156200003857600080fd5b50604051620035223803806200352283398181016040528101906200005e9190620001eb565b6200007e620000726200010860201b60201c565b6200011060201b60201c565b81600260006101000a81548173ffffffffffffffffffffffffffffffffffffffff021916908373ffffffffffffffffffffffffffffffffffffffff16021790555080600360006101000a81548173ffffffffffffffffffffffffffffffffffffffff021916908373ffffffffffffffffffffffffffffffffffffffff16021790555050506200027a565b600033905090565b60008060009054906101000a900473ffffffffffffffffffffffffffffffffffffffff169050816000806101000a81548173ffffffffffffffffffffffffffffffffffffffff021916908373ffffffffffffffffffffffffffffffffffffffff1602179055508173ffffffffffffffffffffffffffffffffffffffff168173ffffffffffffffffffffffffffffffffffffffff167f8be0079c531659141344cd1fd0a4f28419497f9722a3daafe3b4186f6b6457e060405160405180910390a35050565b600081519050620001e58162000260565b92915050565b60008060408385031215620001ff57600080fd5b60006200020f85828601620001d4565b92505060206200022285828601620001d4565b9150509250929050565b6000620002398262000240565b9050919050565b600073ffffffffffffffffffffffffffffffffffffffff82169050919050565b6200026b816200022c565b81146200027757600080fd5b50565b613298806200028a6000396000f3fe608060405234801561001057600080fd5b506004361061018e5760003560e01c80638da5cb5b116100de578063bd798a3f11610097578063d9f003ae11610071578063d9f003ae14610429578063dfc83ebb14610459578063e5cd7e1014610477578063f2fde38b146104935761018e565b8063bd798a3f146103ba578063c07cfca9146103d6578063d0d7b14c1461040b5761018e565b80638da5cb5b1461030e578063935ece311461032c578063a8b0bb8314610348578063ab55cbf314610366578063abe50f1914610382578063b25557a51461039e5761018e565b8063567d1ebf1161014b57806372f702f31161012557806372f702f31461029857806377254709146102b6578063787a08a6146102d25780638b0e9f3f146102f05761018e565b8063567d1ebf1461023f57806364ab86751461025d578063715018a61461028e5761018e565b80630e6878a314610193578063155dd5ee146101af578063260a8f4a146101cb5780633092fac3146101e75780633b6dc6b4146102055780634581506514610223575b600080fd5b6101ad60048036038101906101a891906121ef565b6104af565b005b6101c960048036038101906101c49190612241565b6106e0565b005b6101e560048036038101906101e09190612241565b6108e3565b005b6101ef6109a0565b6040516101fc9190612d16565b60405180910390f35b61020d6109a6565b60405161021a91906129ac565b60405180910390f35b61023d60048036038101906102389190612241565b6109cc565b005b610247610a89565b6040516102549190612d16565b60405180910390f35b6102776004803603810190610272919061215f565b610a8f565b604051610285929190612d31565b60405180910390f35b610296610d0b565b005b6102a0610d93565b6040516102ad9190612a95565b60405180910390f35b6102d060048036038101906102cb9190612241565b610db9565b005b6102da610ec7565b6040516102e79190612d16565b60405180910390f35b6102f8610ecd565b6040516103059190612d16565b60405180910390f35b610316610ed3565b60405161032391906129ac565b60405180910390f35b6103466004803603810190610341919061215f565b610efc565b005b610350610fbc565b60405161035d9190612d16565b60405180910390f35b610380600480360381019061037b91906122cf565b610fc2565b005b61039c60048036038101906103979190612293565b6110f5565b005b6103b860048036038101906103b39190612241565b61144f565b005b6103d460048036038101906103cf9190612241565b61150c565b005b6103f060048036038101906103eb919061215f565b6117c2565b60405161040296959493929190612d83565b60405180910390f35b6104136117fe565b6040516104209190612d16565b60405180910390f35b610443600480360381019061043e9190612188565b611804565b60405161045091906129ac565b60405180910390f35b61046161184b565b60405161046e9190612d16565b60405180910390f35b610491600480360381019061048c9190612241565b611851565b005b6104ad60048036038101906104a8919061215f565b61190e565b005b60006104b9611a06565b90506000600160008373ffffffffffffffffffffffffffffffffffffffff1673ffffffffffffffffffffffffffffffffffffffff1681526020019081526020016000209050600060075482600301544261051391906130b3565b61051d9190612eb7565b90506000826000015414806105325750600081145b1561053f575050506106dd565b60008061054b85610a8f565b9150915080600001518460000181905550806020015184600101819055508060a0015184600501819055508060800151846004018190555080606001518460030181905550851561065257600360009054906101000a900473ffffffffffffffffffffffffffffffffffffffff1673ffffffffffffffffffffffffffffffffffffffff1663a9059cbb6105dc611a06565b846040518363ffffffff1660e01b81526004016105fa929190612a27565b602060405180830381600087803b15801561061457600080fd5b505af1158015610628573d6000803e3d6000fd5b505050506040513d601f19601f8201168201806040525081019061064c9190612218565b50610687565b818460000160008282546106669190612e61565b92505081905550816009600082825461067f9190612e61565b925050819055505b8473ffffffffffffffffffffffffffffffffffffffff167ff8e2a26261c4c2473cb153385439b56b471da46d1d12ee8f2652ec039710b7f683856040516106cf929190612d5a565b60405180910390a250505050505b50565b60006106ea611a06565b90506000600160008373ffffffffffffffffffffffffffffffffffffffff1673ffffffffffffffffffffffffffffffffffffffff16815260200190815260200160002090504260085482600201546107429190612e61565b10610782576040517f08c379a000000000000000000000000000000000000000000000000000000000815260040161077990612bfa565b60405180910390fd5b6000816000015410156107ca576040517f08c379a00000000000000000000000000000000000000000000000000000000081526004016107c190612bac565b60405180910390fd5b6107d460006104af565b806000015483106107f15780600001549250600081600201819055505b600360009054906101000a900473ffffffffffffffffffffffffffffffffffffffff1673ffffffffffffffffffffffffffffffffffffffff1663a9059cbb83856040518363ffffffff1660e01b815260040161084e929190612a27565b602060405180830381600087803b15801561086857600080fd5b505af115801561087c573d6000803e3d6000fd5b505050506040513d601f19601f820116820180604052508101906108a09190612218565b50428160030181905550828160000160008282546108be91906130b3565b9250508190555082600960008282546108d791906130b3565b92505081905550505050565b6108eb611a06565b73ffffffffffffffffffffffffffffffffffffffff16610909610ed3565b73ffffffffffffffffffffffffffffffffffffffff161461095f576040517f08c379a000000000000000000000000000000000000000000000000000000000815260040161095690612c68565b60405180910390fd5b806005819055507fad219fed7e76fbd06f005484092a7e2a85d653e9e6be64f32f01c2bb5b21d0e0816040516109959190612b30565b60405180910390a150565b60055481565b600260009054906101000a900473ffffffffffffffffffffffffffffffffffffffff1681565b6109d4611a06565b73ffffffffffffffffffffffffffffffffffffffff166109f2610ed3565b73ffffffffffffffffffffffffffffffffffffffff1614610a48576040517f08c379a0000000000000000000000000000000000000000000000000000000008152600401610a3f90612c68565b60405180910390fd5b806007819055507fad219fed7e76fbd06f005484092a7e2a85d653e9e6be64f32f01c2bb5b21d0e081604051610a7e9190612b7e565b60405180910390a150565b60045481565b6000610a99612058565b600160008473ffffffffffffffffffffffffffffffffffffffff1673ffffffffffffffffffffffffffffffffffffffff1681526020019081526020016000206040518060c0016040529081600082015481526020016001820154815260200160028201548152602001600382015481526020016004820154815260200160058201548152505090506000600754826060015142610b3691906130b3565b610b409190612eb7565b9050600082600001511480610b555750600081145b15610b64576000925050610d06565b60008260a001511180610b7b575060008260800151115b15610c45576004548260200151600654610b959190613059565b600554610ba29190612e61565b8360000151610bb19190613059565b610bbb9190612eb7565b925060075482606001818151610bd19190612e61565b91508181525050600181610be591906130b3565b905060008260a001511115610c0e578160a0015182602001818152505060008260a00181815250505b600082608001511115610c4457816080015182600001818151610c319190612e61565b9150818152505060008260800181815250505b5b6000811115610d045760075481610c5c9190613059565b82606001818151610c6d9190612e61565b915081815250506000838360000151610c869190612e61565b905060008360200151600654610c9c9190613059565b600554610ca99190612e61565b90505b6000831115610cef576004548183610cc49190613059565b610cce9190612eb7565b82610cd99190612e61565b9150600183610ce891906130b3565b9250610cac565b836000015182610cff91906130b3565b945050505b505b915091565b610d13611a06565b73ffffffffffffffffffffffffffffffffffffffff16610d31610ed3565b73ffffffffffffffffffffffffffffffffffffffff1614610d87576040517f08c379a0000000000000000000000000000000000000000000000000000000008152600401610d7e90612c68565b60405180910390fd5b610d916000611a0e565b565b600360009054906101000a900473ffffffffffffffffffffffffffffffffffffffff1681565b610dc1611a06565b73ffffffffffffffffffffffffffffffffffffffff16610ddf610ed3565b73ffffffffffffffffffffffffffffffffffffffff1614610e35576040517f08c379a0000000000000000000000000000000000000000000000000000000008152600401610e2c90612c68565b60405180910390fd5b80600a610e429190612f3b565b905060045481600554610e559190613059565b610e5f9190612eb7565b60058190555060045481600654610e769190613059565b610e809190612eb7565b600681905550806004819055507fad219fed7e76fbd06f005484092a7e2a85d653e9e6be64f32f01c2bb5b21d0e081604051610ebc9190612bcc565b60405180910390a150565b60085481565b60095481565b60008060009054906101000a900473ffffffffffffffffffffffffffffffffffffffff16905090565b610f04611a06565b73ffffffffffffffffffffffffffffffffffffffff16610f22610ed3565b73ffffffffffffffffffffffffffffffffffffffff1614610f78576040517f08c379a0000000000000000000000000000000000000000000000000000000008152600401610f6f90612c68565b60405180910390fd5b80600260006101000a81548173ffffffffffffffffffffffffffffffffffffffff021916908373ffffffffffffffffffffffffffffffffffffffff16021790555050565b600a5481565b6000610fcc611a06565b9050610fd9818585611804565b73ffffffffffffffffffffffffffffffffffffffff16600260009054906101000a900473ffffffffffffffffffffffffffffffffffffffff1673ffffffffffffffffffffffffffffffffffffffff1614611068576040517f08c379a000000000000000000000000000000000000000000000000000000000815260040161105f90612c88565b60405180910390fd5b6000600160008373ffffffffffffffffffffffffffffffffffffffff1673ffffffffffffffffffffffffffffffffffffffff16815260200190815260200160002090506110b560006104af565b82156110d2574281600301819055508481600101819055506110dc565b8481600501819055505b600a548511156110ee5784600a819055505b5050505050565b60006110ff611a06565b905060008311611144576040517f08c379a000000000000000000000000000000000000000000000000000000000815260040161113b90612af0565b60405180910390fd5b82600360009054906101000a900473ffffffffffffffffffffffffffffffffffffffff1673ffffffffffffffffffffffffffffffffffffffff1663dd62ed3e83306040518363ffffffff1660e01b81526004016111a29291906129c7565b60206040518083038186803b1580156111ba57600080fd5b505afa1580156111ce573d6000803e3d6000fd5b505050506040513d601f19601f820116820180604052508101906111f2919061226a565b1015611233576040517f08c379a000000000000000000000000000000000000000000000000000000000815260040161122a90612ca8565b60405180910390fd5b600360009054906101000a900473ffffffffffffffffffffffffffffffffffffffff1673ffffffffffffffffffffffffffffffffffffffff166323b872dd8230866040518463ffffffff1660e01b8152600401611292939291906129f0565b602060405180830381600087803b1580156112ac57600080fd5b505af11580156112c0573d6000803e3d6000fd5b505050506040513d601f19601f820116820180604052508101906112e49190612218565b506000600160008373ffffffffffffffffffffffffffffffffffffffff1673ffffffffffffffffffffffffffffffffffffffff168152602001908152602001600020905060008160020154141561133f574281600201819055505b61134960006104af565b8215611391574281600301819055508060040154846113689190612e61565b81600001600082825461137b9190612e61565b92505081905550600081600401819055506113e2565b60008160000154116113d8576040517f08c379a00000000000000000000000000000000000000000000000000000000081526004016113cf90612cc8565b60405180910390fd5b8381600401819055505b83600960008282546113f49190612e61565b925050819055508173ffffffffffffffffffffffffffffffffffffffff167fb831f69f1cebc12b23cd864ce5bfea2669d01956050a0147d71d418074559c21856040516114419190612d16565b60405180910390a250505050565b611457611a06565b73ffffffffffffffffffffffffffffffffffffffff16611475610ed3565b73ffffffffffffffffffffffffffffffffffffffff16146114cb576040517f08c379a00000000000000000000000000000000000000000000000000000000081526004016114c290612c68565b60405180910390fd5b806006819055507fad219fed7e76fbd06f005484092a7e2a85d653e9e6be64f32f01c2bb5b21d0e0816040516115019190612ce8565b60405180910390a150565b611514611a06565b73ffffffffffffffffffffffffffffffffffffffff16611532610ed3565b73ffffffffffffffffffffffffffffffffffffffff1614611588576040517f08c379a000000000000000000000000000000000000000000000000000000000815260040161157f90612c68565b60405180910390fd5b6000611592611a06565b9050600954600360009054906101000a900473ffffffffffffffffffffffffffffffffffffffff1673ffffffffffffffffffffffffffffffffffffffff166370a08231306040518263ffffffff1660e01b81526004016115f291906129ac565b60206040518083038186803b15801561160a57600080fd5b505afa15801561161e573d6000803e3d6000fd5b505050506040513d601f19601f82011682018060405250810190611642919061226a565b61164c91906130b3565b82111561170e57600954600360009054906101000a900473ffffffffffffffffffffffffffffffffffffffff1673ffffffffffffffffffffffffffffffffffffffff166370a08231306040518263ffffffff1660e01b81526004016116b191906129ac565b60206040518083038186803b1580156116c957600080fd5b505afa1580156116dd573d6000803e3d6000fd5b505050506040513d601f19601f82011682018060405250810190611701919061226a565b61170b91906130b3565b91505b600360009054906101000a900473ffffffffffffffffffffffffffffffffffffffff1673ffffffffffffffffffffffffffffffffffffffff1663a9059cbb82846040518363ffffffff1660e01b815260040161176b929190612a27565b602060405180830381600087803b15801561178557600080fd5b505af1158015611799573d6000803e3d6000fd5b505050506040513d601f19601f820116820180604052508101906117bd9190612218565b505050565b60016020528060005260406000206000915090508060000154908060010154908060020154908060030154908060040154908060050154905086565b60075481565b600061184261183c308686604051602001611821939291906129f0565b60405160208183030381529060405280519060200120611ad2565b83611b02565b90509392505050565b60065481565b611859611a06565b73ffffffffffffffffffffffffffffffffffffffff16611877610ed3565b73ffffffffffffffffffffffffffffffffffffffff16146118cd576040517f08c379a00000000000000000000000000000000000000000000000000000000081526004016118c490612c68565b60405180910390fd5b806008819055507fad219fed7e76fbd06f005484092a7e2a85d653e9e6be64f32f01c2bb5b21d0e0816040516119039190612c1a565b60405180910390a150565b611916611a06565b73ffffffffffffffffffffffffffffffffffffffff16611934610ed3565b73ffffffffffffffffffffffffffffffffffffffff161461198a576040517f08c379a000000000000000000000000000000000000000000000000000000000815260040161198190612c68565b60405180910390fd5b600073ffffffffffffffffffffffffffffffffffffffff168173ffffffffffffffffffffffffffffffffffffffff1614156119fa576040517f08c379a00000000000000000000000000000000000000000000000000000000081526004016119f190612b10565b60405180910390fd5b611a0381611a0e565b50565b600033905090565b60008060009054906101000a900473ffffffffffffffffffffffffffffffffffffffff169050816000806101000a81548173ffffffffffffffffffffffffffffffffffffffff021916908373ffffffffffffffffffffffffffffffffffffffff1602179055508173ffffffffffffffffffffffffffffffffffffffff168173ffffffffffffffffffffffffffffffffffffffff167f8be0079c531659141344cd1fd0a4f28419497f9722a3daafe3b4186f6b6457e060405160405180910390a35050565b600081604051602001611ae59190612986565b604051602081830303815290604052805190602001209050919050565b6000806000611b118585611b29565b91509150611b1e81611bac565b819250505092915050565b600080604183511415611b6b5760008060006020860151925060408601519150606086015160001a9050611b5f87828585611efd565b94509450505050611ba5565b604083511415611b9c576000806020850151915060408501519050611b9186838361200a565b935093505050611ba5565b60006002915091505b9250929050565b60006004811115611be6577f4e487b7100000000000000000000000000000000000000000000000000000000600052602160045260246000fd5b816004811115611c1f577f4e487b7100000000000000000000000000000000000000000000000000000000600052602160045260246000fd5b1415611c2a57611efa565b60016004811115611c64577f4e487b7100000000000000000000000000000000000000000000000000000000600052602160045260246000fd5b816004811115611c9d577f4e487b7100000000000000000000000000000000000000000000000000000000600052602160045260246000fd5b1415611cde576040517f08c379a0000000000000000000000000000000000000000000000000000000008152600401611cd590612ab0565b60405180910390fd5b60026004811115611d18577f4e487b7100000000000000000000000000000000000000000000000000000000600052602160045260246000fd5b816004811115611d51577f4e487b7100000000000000000000000000000000000000000000000000000000600052602160045260246000fd5b1415611d92576040517f08c379a0000000000000000000000000000000000000000000000000000000008152600401611d8990612ad0565b60405180910390fd5b60036004811115611dcc577f4e487b7100000000000000000000000000000000000000000000000000000000600052602160045260246000fd5b816004811115611e05577f4e487b7100000000000000000000000000000000000000000000000000000000600052602160045260246000fd5b1415611e46576040517f08c379a0000000000000000000000000000000000000000000000000000000008152600401611e3d90612b5e565b60405180910390fd5b600480811115611e7f577f4e487b7100000000000000000000000000000000000000000000000000000000600052602160045260246000fd5b816004811115611eb8577f4e487b7100000000000000000000000000000000000000000000000000000000600052602160045260246000fd5b1415611ef9576040517f08c379a0000000000000000000000000000000000000000000000000000000008152600401611ef090612c48565b60405180910390fd5b5b50565b6000807f7fffffffffffffffffffffffffffffff5d576e7357a4501ddfe92f46681b20a08360001c1115611f38576000600391509150612001565b601b8560ff1614158015611f505750601c8560ff1614155b15611f62576000600491509150612001565b600060018787878760405160008152602001604052604051611f879493929190612a50565b6020604051602081039080840390855afa158015611fa9573d6000803e3d6000fd5b505050602060405103519050600073ffffffffffffffffffffffffffffffffffffffff168173ffffffffffffffffffffffffffffffffffffffff161415611ff857600060019250925050612001565b80600092509250505b94509492505050565b6000806000807f7fffffffffffffffffffffffffffffffffffffffffffffffffffffffffffffff85169150601b8560ff1c01905061204a87828885611efd565b935093505050935093915050565b6040518060c001604052806000815260200160008152602001600081526020016000815260200160008152602001600081525090565b60006120a161209c84612e15565b612de4565b9050828152602081018484840111156120b957600080fd5b6120c484828561316a565b509392505050565b6000813590506120db8161321d565b92915050565b6000813590506120f081613234565b92915050565b60008151905061210581613234565b92915050565b600082601f83011261211c57600080fd5b813561212c84826020860161208e565b91505092915050565b6000813590506121448161324b565b92915050565b6000815190506121598161324b565b92915050565b60006020828403121561217157600080fd5b600061217f848285016120cc565b91505092915050565b60008060006060848603121561219d57600080fd5b60006121ab868287016120cc565b93505060206121bc86828701612135565b925050604084013567ffffffffffffffff8111156121d957600080fd5b6121e58682870161210b565b9150509250925092565b60006020828403121561220157600080fd5b600061220f848285016120e1565b91505092915050565b60006020828403121561222a57600080fd5b6000612238848285016120f6565b91505092915050565b60006020828403121561225357600080fd5b600061226184828501612135565b91505092915050565b60006020828403121561227c57600080fd5b600061228a8482850161214a565b91505092915050565b600080604083850312156122a657600080fd5b60006122b485828601612135565b92505060206122c5858286016120e1565b9150509250929050565b6000806000606084860312156122e457600080fd5b60006122f286828701612135565b935050602084013567ffffffffffffffff81111561230f57600080fd5b61231b8682870161210b565b925050604061232c868287016120e1565b9150509250925092565b61233f816130e7565b82525050565b61234e81613105565b82525050565b61236561236082613105565b613179565b82525050565b61237481613146565b82525050565b6000612387601883612e45565b91507f45434453413a20696e76616c6964207369676e617475726500000000000000006000830152602082019050919050565b60006123c7601f83612e45565b91507f45434453413a20696e76616c6964207369676e6174757265206c656e677468006000830152602082019050919050565b6000612407601c83612e56565b91507f19457468657265756d205369676e6564204d6573736167653a0a3332000000006000830152601c82019050919050565b6000612447601f83612e45565b91507f5374616b696e6720726571756972657320706f7369746976652076616c7565006000830152602082019050919050565b6000612487602683612e45565b91507f4f776e61626c653a206e6577206f776e657220697320746865207a65726f206160008301527f64647265737300000000000000000000000000000000000000000000000000006020830152604082019050919050565b60006124ed600d83612e45565b91507f4261736520696e746572657374000000000000000000000000000000000000006000830152602082019050919050565b600061252d602283612e45565b91507f45434453413a20696e76616c6964207369676e6174757265202773272076616c60008301527f75650000000000000000000000000000000000000000000000000000000000006020830152604082019050919050565b6000612593600f83612e45565b91507f496e74657265737420706572696f6400000000000000000000000000000000006000830152602082019050919050565b60006125d3601283612e45565b91507f4e6f7468696e6720776173207374616b656400000000000000000000000000006000830152602082019050919050565b6000612613600883612e45565b91507f446563696d616c730000000000000000000000000000000000000000000000006000830152602082019050919050565b6000612653602e83612e45565b91507f46756e647320617265206c6f636b656420756e74696c20636f6f6c646f776e2060008301527f706572696f64206973206f7665720000000000000000000000000000000000006020830152604082019050919050565b60006126b9601083612e45565b91507f436f6f6c20646f776e20706572696f64000000000000000000000000000000006000830152602082019050919050565b60006126f9602283612e45565b91507f45434453413a20696e76616c6964207369676e6174757265202776272076616c60008301527f75650000000000000000000000000000000000000000000000000000000000006020830152604082019050919050565b600061275f602083612e45565b91507f4f776e61626c653a2063616c6c6572206973206e6f7420746865206f776e65726000830152602082019050919050565b600061279f603b83612e45565b91507f5369676e6174757265206f662074686520696e70757420776173206e6f74207360008301527f69676e656420627920277369676e6174757265416464726573732700000000006020830152604082019050919050565b6000612805603983612e45565b91507f546865207374616b696e6720636f6e7472616374206973206e6f74206170707260008301527f6f76656420746f207374616b65207468697320616d6f756e74000000000000006020830152604082019050919050565b600061286b602083612e45565b91507f4e6577207374616b657273206d757374207374616b6520696e7374616e746c796000830152602082019050919050565b60006128ab600e83612e45565b91507f457874726120696e7465726573740000000000000000000000000000000000006000830152602082019050919050565b60c0820160008201516128f46000850182612959565b5060208201516129076020850182612959565b50604082015161291a6040850182612959565b50606082015161292d6060850182612959565b5060808201516129406080850182612959565b5060a082015161295360a0850182612959565b50505050565b6129628161312f565b82525050565b6129718161312f565b82525050565b61298081613139565b82525050565b6000612991826123fa565b915061299d8284612354565b60208201915081905092915050565b60006020820190506129c16000830184612336565b92915050565b60006040820190506129dc6000830185612336565b6129e96020830184612336565b9392505050565b6000606082019050612a056000830186612336565b612a126020830185612336565b612a1f6040830184612968565b949350505050565b6000604082019050612a3c6000830185612336565b612a496020830184612968565b9392505050565b6000608082019050612a656000830187612345565b612a726020830186612977565b612a7f6040830185612345565b612a8c6060830184612345565b95945050505050565b6000602082019050612aaa600083018461236b565b92915050565b60006020820190508181036000830152612ac98161237a565b9050919050565b60006020820190508181036000830152612ae9816123ba565b9050919050565b60006020820190508181036000830152612b098161243a565b9050919050565b60006020820190508181036000830152612b298161247a565b9050919050565b60006040820190508181036000830152612b49816124e0565b9050612b586020830184612968565b92915050565b60006020820190508181036000830152612b7781612520565b9050919050565b60006040820190508181036000830152612b9781612586565b9050612ba66020830184612968565b92915050565b60006020820190508181036000830152612bc5816125c6565b9050919050565b60006040820190508181036000830152612be581612606565b9050612bf46020830184612968565b92915050565b60006020820190508181036000830152612c1381612646565b9050919050565b60006040820190508181036000830152612c33816126ac565b9050612c426020830184612968565b92915050565b60006020820190508181036000830152612c61816126ec565b9050919050565b60006020820190508181036000830152612c8181612752565b9050919050565b60006020820190508181036000830152612ca181612792565b9050919050565b60006020820190508181036000830152612cc1816127f8565b9050919050565b60006020820190508181036000830152612ce18161285e565b9050919050565b60006040820190508181036000830152612d018161289e565b9050612d106020830184612968565b92915050565b6000602082019050612d2b6000830184612968565b92915050565b600060e082019050612d466000830185612968565b612d5360208301846128de565b9392505050565b6000604082019050612d6f6000830185612968565b612d7c6020830184612968565b9392505050565b600060c082019050612d986000830189612968565b612da56020830188612968565b612db26040830187612968565b612dbf6060830186612968565b612dcc6080830185612968565b612dd960a0830184612968565b979650505050505050565b6000604051905081810181811067ffffffffffffffff82111715612e0b57612e0a6131e1565b5b8060405250919050565b600067ffffffffffffffff821115612e3057612e2f6131e1565b5b601f19601f8301169050602081019050919050565b600082825260208201905092915050565b600081905092915050565b6000612e6c8261312f565b9150612e778361312f565b9250827fffffffffffffffffffffffffffffffffffffffffffffffffffffffffffffffff03821115612eac57612eab613183565b5b828201905092915050565b6000612ec28261312f565b9150612ecd8361312f565b925082612edd57612edc6131b2565b5b828204905092915050565b6000808291508390505b6001851115612f3257808604811115612f0e57612f0d613183565b5b6001851615612f1d5780820291505b8081029050612f2b85613210565b9450612ef2565b94509492505050565b6000612f468261312f565b9150612f518361312f565b9250612f7e7fffffffffffffffffffffffffffffffffffffffffffffffffffffffffffffffff8484612f86565b905092915050565b600082612f965760019050613052565b81612fa45760009050613052565b8160018114612fba5760028114612fc457612ff3565b6001915050613052565b60ff841115612fd657612fd5613183565b5b8360020a915084821115612fed57612fec613183565b5b50613052565b5060208310610133831016604e8410600b84101617156130285782820a90508381111561302357613022613183565b5b613052565b6130358484846001612ee8565b9250905081840481111561304c5761304b613183565b5b81810290505b9392505050565b60006130648261312f565b915061306f8361312f565b9250817fffffffffffffffffffffffffffffffffffffffffffffffffffffffffffffffff04831182151516156130a8576130a7613183565b5b828202905092915050565b60006130be8261312f565b91506130c98361312f565b9250828210156130dc576130db613183565b5b828203905092915050565b60006130f28261310f565b9050919050565b60008115159050919050565b6000819050919050565b600073ffffffffffffffffffffffffffffffffffffffff82169050919050565b6000819050919050565b600060ff82169050919050565b600061315182613158565b9050919050565b60006131638261310f565b9050919050565b82818337600083830152505050565b6000819050919050565b7f4e487b7100000000000000000000000000000000000000000000000000000000600052601160045260246000fd5b7f4e487b7100000000000000000000000000000000000000000000000000000000600052601260045260246000fd5b7f4e487b7100000000000000000000000000000000000000000000000000000000600052604160045260246000fd5b60008160011c9050919050565b613226816130e7565b811461323157600080fd5b50565b61323d816130f9565b811461324857600080fd5b50565b6132548161312f565b811461325f57600080fd5b5056fea2646970667358221220760549877bcb01cca34d11638dda2fe762a01b1f796ffb64d388d3c4d8a3d8c264736f6c63430008000033",
  "immutableReferences": {},
  "source": "//SPDX-License-Identifier: UNLICENSED\npragma solidity ^0.8.0;\n\nimport \"@openzeppelin/contracts/token/ERC20/IERC20.sol\";\nimport \"@openzeppelin/contracts/access/Ownable.sol\";\nimport \"@openzeppelin/contracts/utils/math/SafeMath.sol\";\nimport \"@openzeppelin/contracts/utils/cryptography/ECDSA.sol\";\n\n/**\n * @title A staking contract for Envoy tokens\n * @author Kasper De Blieck (kasperdeblieck@envoy.art)\n * This contract allows Envoy token owners to stake their funds.\n * Staking funds will reward a periodic compounded interest.\n */\ncontract EnvoyStaking is Ownable {\n    \n    using SafeMath for uint;\n\n    event ConfigUpdate(string field, uint value);\n    event Staking(address indexed stakeholder_, uint stake_);\n    event Rewarding(address indexed stakeholder_, uint reward_, uint periods_);\n\n    struct StakeHolder {\n        uint stakingBalance;\n        uint weight;\n        uint startDate;\n        uint interestDate; \n        uint newStake; \n        uint newWeight;\n    }\n\n    mapping(address => StakeHolder) public stakeholders;\n    \n    address public signatureAddress;\n\n    IERC20 public stakingToken;\n\n    // Decimals used for interest calculation\n    uint public interestDecimals = 1000000000000;\n    uint public baseInterest = 4000000000;\n    uint public extraInterest = 4000000000; //10% per year\n    uint public interestPeriod = 15 days;\n    uint public cooldown = 2 days;\n\n    uint public totalStake;\n    uint public maxWeight;\n\n    constructor(address signatureAddress_, address stakingTokenAddress) {\n        signatureAddress = signatureAddress_;\n        stakingToken = IERC20(stakingTokenAddress);\n    }\n\n    /**\n     * Increase the stake of the sender by a value.\n     * @param weight_ The new weight.\n     * @param signature A signature proving the sender\n     *  is allowed to update his weight.\n     * @param instant if false, finish current period with\n     *  old values and start new period with new value.\n     *  If true, end current period without rewards and\n     *  start a new period with the new values.\n     */\n    function updateWeight(uint weight_, bytes memory signature, bool instant) public{\n        address sender = _msgSender();\n        require(signatureAddress == _recoverSigner(sender, weight_, signature),\n            \"Signature of the input was not signed by 'signatureAddress'\");\n\n        StakeHolder storage stakeholder = stakeholders[sender];\n\n        // Claim previous rewards with old weight\n        claimRewards(false);\n\n        if(instant){\n            stakeholder.interestDate = block.timestamp;\n            stakeholder.weight = weight_;\n        } else {\n            stakeholder.newWeight = weight_;\n        }\n\n        // Keep track of highest weight\n        if(weight_ > maxWeight){\n            maxWeight = weight_;\n        }\n    }\n\n    /**\n     * Increase the stake of the sender by a value.\n     * @param amount The amount to stake\n     * @param instant if false, finish current period with\n     *  old values and start new period with new value.\n     *  If true, end current period without rewards and\n     *  start a new period with the new values.\n     *  If the current stake is 0, this should be instant.\n     */\n    function stake(uint amount, bool instant) public {\n        address sender = _msgSender();\n\n        require(amount > 0, \"Staking requires positive value\");\n        require(stakingToken.allowance(sender, address(this)) >= amount,\n            \"The staking contract is not approved to stake this amount\");\n\n        stakingToken.transferFrom(sender, address(this), amount);\n\n        StakeHolder storage stakeholder = stakeholders[sender];\n\n        if(stakeholder.startDate == 0) {\n            stakeholder.startDate = block.timestamp;\n        }\n\n        // Claim previous rewards with old staked value\n        claimRewards(false);\n        if(instant){\n            stakeholder.interestDate = block.timestamp;\n            stakeholder.stakingBalance += amount + stakeholder.newStake;\n            stakeholder.newStake = 0;\n        } else {\n            require(stakeholder.stakingBalance > 0, \"New stakers must stake instantly\");\n            stakeholder.newStake = amount;\n        }\n\n        // Keep track of the total stake in the contract\n        totalStake += amount;\n\n        emit Staking(sender, amount);\n\n    }\n\n    /**\n     * Withdraw staked funds from the contract.\n     * This will calculate the owed rewards for previous periods,\n     * the current interest period will end without reward.\n     * @param amount The amount to withdraw, capped by stakingbalance\n     */\n    function withdrawFunds(uint amount) public {\n        address sender = _msgSender();\n        StakeHolder storage stakeholder = stakeholders[sender];\n\n        require(stakeholder.startDate + cooldown < block.timestamp, \"Funds are locked until cooldown period is over\");\n        require(stakeholder.stakingBalance >= 0, \"Nothing was staked\");\n        \n        // Claim rewards with current stake\n        claimRewards(false);\n        \n        if(amount >= stakeholder.stakingBalance){\n            amount = stakeholder.stakingBalance;\n            stakeholder.startDate = 0;\n        }\n        stakingToken.transfer(sender, amount);\n\n        stakeholder.interestDate = block.timestamp;\n        stakeholder.stakingBalance -= amount;\n        totalStake -= amount;\n    }\n\n    /**\n     * Function to claim the rewards earned by staking.\n     * @dev uses calculateRewards to get the amount owed\n     * @param withdrawl if true, send the rewards to the stakeholder.\n     *  if false, add the rewards to the staking balance of the stakeholder.\n     */\n    function claimRewards(bool withdrawl) public {\n\n        address stakeholderAddress = _msgSender();\n        StakeHolder storage stakeholder = stakeholders[stakeholderAddress];\n\n        // Number of accounts for which rewards will be paid\n        uint n = (block.timestamp-stakeholder.interestDate) / interestPeriod;\n\n        if (stakeholder.stakingBalance == 0 || n == 0){\n            return;\n        }\n\n        // Calculate the rewards and new stakeholder state\n        (uint reward, StakeHolder memory newStakeholder) = calculateRewards(stakeholderAddress);\n        \n        stakeholder.stakingBalance = newStakeholder.stakingBalance;\n        stakeholder.weight = newStakeholder.weight;\n        stakeholder.newWeight = newStakeholder.newWeight;\n        stakeholder.newStake = newStakeholder.newStake;\n        stakeholder.interestDate = newStakeholder.interestDate;\n\n        // If the stakeholder wants to redraw the rewards;\n        // Send to his wallet. Else, update stakingbalance.\n        if (withdrawl){\n            stakingToken.transfer(_msgSender(), reward);\n        } else {\n            stakeholder.stakingBalance += reward;\n            totalStake += reward;\n        }\n\n        emit Rewarding(stakeholderAddress, reward, n);\n\n    }\n\n    /**\n     * Calculate the rewards owed to a stakeholder.\n     * The interest will be calculated based on:\n     *  - The amount staked of the stakeholder\n     *  - The weight of the stakeholder\n     *  - The amount of interest periods staked\n     *  - The base and extra interest of the contract\n     * The formula of compounding interest is applied.\n     * @param stakeholderAddress The address to calculate rewards for\n     * @return reward The rewards of the stakeholder for previous periods.\n     * @return stakeholder The new object containing stakeholder state\n     */\n    function calculateRewards(address stakeholderAddress) public view returns(uint reward, StakeHolder memory stakeholder) {\n\n        stakeholder = stakeholders[stakeholderAddress];\n        \n        // Number of accounts for which rewards will be paid\n        uint n = (block.timestamp-stakeholder.interestDate) / interestPeriod;\n\n        if (stakeholder.stakingBalance == 0 || n == 0){\n            return (0, stakeholder);\n        }\n\n        if (stakeholder.newWeight > 0 || stakeholder.newStake > 0){\n            // If updates were scheduled for the next period:\n            // - first calculate rewards on the first compounding period with the old values\n            // - set the new values to use in the computation of the following compounding periods\n\n            // Rewards based on old values\n            reward = stakeholder.stakingBalance * (baseInterest + extraInterest * stakeholder.weight) / interestDecimals;\n            // One period was already rewarded with old values\n            stakeholder.interestDate += interestPeriod;\n            n-=1;\n\n            // set new values\n            if(stakeholder.newWeight > 0){\n                stakeholder.weight = stakeholder.newWeight;\n                stakeholder.newWeight = 0;\n            }\n\n            if(stakeholder.newStake > 0){\n                stakeholder.stakingBalance += stakeholder.newStake;\n                stakeholder.newStake = 0;\n            }\n\n        }\n\n        // Only continue if n is still greater than 0\n        if(n>0){\n            // Update the timestamp of the timestamp for the staking period that was not rewarded yet\n            stakeholder.interestDate += (n * interestPeriod);\n\n            uint s = stakeholder.stakingBalance + reward;\n            uint r = baseInterest + extraInterest * stakeholder.weight;\n\n            while (n > 0) {\n                s += s * r / interestDecimals;\n                n -= 1;\n            }\n\n            reward = s - stakeholder.stakingBalance;\n        \n        }\n\n    }\n\n\n    /**\n     * Checks if the signature is created out of the contract address, sender and new weight,\n     * signed by the private key of the signerAddress\n     * @param sender the address of the message sender\n     * @param weight amount of tokens to mint\n     * @param signature a signature of the contract address, senderAddress and tokensId.\n     *   Should be signed by the private key of signerAddress.\n     */\n    function _recoverSigner(address sender, uint weight, bytes memory signature) public view returns (address){\n        return ECDSA.recover(ECDSA.toEthSignedMessageHash(keccak256(abi.encode(address(this), sender, weight))) , signature);\n    }\n\n    /**\n     * Owner function to transfer the staking token from the contract\n     * address to the contract owner.\n     * The amount cannot exceed the amount staked by the stakeholders,\n     * making sure the funds of stakeholders stay in the contract.\n     * @param amount the amount to withraw as owner\n     */\n    function withdrawRemainingFunds(uint amount) public onlyOwner{\n        address sender = _msgSender();\n        \n        // Make sure the staked amounts are never withdrawn\n        if(amount > stakingToken.balanceOf(address(this)) - totalStake){\n            amount = stakingToken.balanceOf(address(this)) - totalStake;\n        }\n\n        stakingToken.transfer(sender, amount);\n    }\n\n    // List of owner functions to update the contract\n    function updateSignatureAddress(address value) public onlyOwner {\n        signatureAddress = value; \n    }\n\n    /**\n     * Updates the amount of decimals used for the interest rate.\n     * After this accuracy, rounding will be applied\n     * and approximations will stack over long time periods.\n     * @param value The number of decimals. NOT the number to devide with.\n     *  e.g.: to use 3 decimals, input 3 (10**3) and not 1000.\n     */\n    function updateInterestDecimals(uint value) public onlyOwner{\n        // First adjust interest rates to new decimals.\n        // Make sure no precision is lost!\n        value = 10 ** value;\n        baseInterest = baseInterest * value / interestDecimals;\n        extraInterest = extraInterest * value / interestDecimals;\n        interestDecimals = value;\n        emit ConfigUpdate('Decimals', value);\n    }\n\n    function updateBaseInterest(uint value) public onlyOwner{\n        baseInterest = value;\n        emit ConfigUpdate('Base interest', value);\n    }\n\n    function updateExtraInterest(uint value) public onlyOwner{\n        extraInterest = value;\n        emit ConfigUpdate('Extra interest', value);\n    }\n\n    function updateInterestPeriod(uint value) public onlyOwner{\n        interestPeriod = value;\n        emit ConfigUpdate('Interest period', value);\n    }\n\n    function updateCoolDownPeriod(uint value) public onlyOwner{\n        cooldown = value;\n        emit ConfigUpdate('Cool down period', value);\n    }\n\n}",
  "sourcePath": "/Users/Baas/repos/envoy/repos/staking/contracts/contracts/EnvoyStaking.sol",
  "compiler": {
    "name": "solc",
    "version": "0.8.0+commit.c7dfd78e.Emscripten.clang"
  },
  "schemaVersion": "3.4.2",
  "updatedAt": "2021-12-05T20:25:39.518Z",
  "devdoc": {
    "author": "Kasper De Blieck (kasperdeblieck@envoy.art) This contract allows Envoy token owners to stake their funds. Staking funds will reward a periodic compounded interest.",
    "kind": "dev",
    "methods": {
      "_recoverSigner(address,uint256,bytes)": {
        "params": {
          "sender": "the address of the message sender",
          "signature": "a signature of the contract address, senderAddress and tokensId.   Should be signed by the private key of signerAddress.",
          "weight": "amount of tokens to mint"
        }
      },
      "calculateRewards(address)": {
        "params": {
          "stakeholderAddress": "The address to calculate rewards for"
        },
        "returns": {
          "reward": "The rewards of the stakeholder for previous periods.",
          "stakeholder": "The new object containing stakeholder state"
        }
      },
      "claimRewards(bool)": {
        "details": "uses calculateRewards to get the amount owed",
        "params": {
          "withdrawl": "if true, send the rewards to the stakeholder.  if false, add the rewards to the staking balance of the stakeholder."
        }
      },
      "owner()": {
        "details": "Returns the address of the current owner."
      },
      "renounceOwnership()": {
        "details": "Leaves the contract without owner. It will not be possible to call `onlyOwner` functions anymore. Can only be called by the current owner. NOTE: Renouncing ownership will leave the contract without an owner, thereby removing any functionality that is only available to the owner."
      },
      "stake(uint256,bool)": {
        "params": {
          "amount": "The amount to stake",
          "instant": "if false, finish current period with  old values and start new period with new value.  If true, end current period without rewards and  start a new period with the new values.  If the current stake is 0, this should be instant."
        }
      },
      "transferOwnership(address)": {
        "details": "Transfers ownership of the contract to a new account (`newOwner`). Can only be called by the current owner."
      },
      "updateInterestDecimals(uint256)": {
        "params": {
          "value": "The number of decimals. NOT the number to devide with.  e.g.: to use 3 decimals, input 3 (10**3) and not 1000."
        }
      },
      "updateWeight(uint256,bytes,bool)": {
        "params": {
          "instant": "if false, finish current period with  old values and start new period with new value.  If true, end current period without rewards and  start a new period with the new values.",
          "signature": "A signature proving the sender  is allowed to update his weight.",
          "weight_": "The new weight."
        }
      },
      "withdrawFunds(uint256)": {
        "params": {
          "amount": "The amount to withdraw, capped by stakingbalance"
        }
      },
      "withdrawRemainingFunds(uint256)": {
        "params": {
          "amount": "the amount to withraw as owner"
        }
      }
    },
    "title": "A staking contract for Envoy tokens",
    "version": 1
  },
  "userdoc": {
    "kind": "user",
    "methods": {
      "_recoverSigner(address,uint256,bytes)": {
        "notice": "Checks if the signature is created out of the contract address, sender and new weight, signed by the private key of the signerAddress"
      },
      "calculateRewards(address)": {
        "notice": "Calculate the rewards owed to a stakeholder. The interest will be calculated based on:  - The amount staked of the stakeholder  - The weight of the stakeholder  - The amount of interest periods staked  - The base and extra interest of the contract The formula of compounding interest is applied."
      },
      "claimRewards(bool)": {
        "notice": "Function to claim the rewards earned by staking."
      },
      "stake(uint256,bool)": {
        "notice": "Increase the stake of the sender by a value."
      },
      "updateInterestDecimals(uint256)": {
        "notice": "Updates the amount of decimals used for the interest rate. After this accuracy, rounding will be applied and approximations will stack over long time periods."
      },
      "updateWeight(uint256,bytes,bool)": {
        "notice": "Increase the stake of the sender by a value."
      },
      "withdrawFunds(uint256)": {
        "notice": "Withdraw staked funds from the contract. This will calculate the owed rewards for previous periods, the current interest period will end without reward."
      },
      "withdrawRemainingFunds(uint256)": {
        "notice": "Owner function to transfer the staking token from the contract address to the contract owner. The amount cannot exceed the amount staked by the stakeholders, making sure the funds of stakeholders stay in the contract."
      }
    },
    "version": 1
  }
}